:020000000000fe
:020001000009f4
:020002000013e9
:02000300001cdf
:020004000026d4
:02000500002fca
:020006000039bf
:020007000042b5
:02000800004bab
:020009000055a0
:02000a00005e96
:02000b0000688b
:02000c00007181
:02000d00007a77
:02000e0000846c
:02000f00008d62
:02001000009757
:0200110000a04d
:0200120000a943
:0200130000b338
:0200140000bc2e
:0200150000c623
:0200160000cf19
:0200170000d80f
:0200180000e204
:0200190000ebfa
:02001a0000f4f0
:02001b0000fee5
:02001c000107da
:02001d000110d0
:02001e00011ac5
:02001f000123bb
:02002000012cb1
:020021000136a6
:02002200013f9c
:02002300014892
:02002400015287
:02002500015b7d
:02002600016473
:02002700016d69
:0200280001775e
:02002900018054
:02002a0001894a
:02002b00019240
:02002c00019c35
:02002d0001a52b
:02002e0001ae21
:02002f0001b717
:0200300001c10c
:0200310001ca02
:0200320001d3f8
:0200330001dcee
:0200340001e5e4
:0200350001eeda
:0200360001f7d0
:020037000201c4
:02003800020aba
:020039000213b0
:02003a00021ca6
:02003b0002259c
:02003c00022e92
:02003d00023788
:02003e0002407e
:02003f00024974
:0200400002526a
:02004100025b60
:02004200026456
:02004300026d4c
:02004400027642
:02004500027f38
:0200460002882e
:02004700029124
:02004800029a1a
:0200490002a310
:02004a0002ac06
:02004b0002b5fc
:02004c0002bdf3
:02004d0002c6e9
:02004e0002cfdf
:02004f0002d8d5
:0200500002e1cb
:0200510002e9c2
:0200520002f2b8
:0200530002fbae
:020054000304a3
:02005500030c9a
:02005600031590
:02005700031e86
:0200580003277c
:02005900032f73
:02005a00033869
:02005b00034060
:02005c00034956
:02005d0003524c
:02005e00035a43
:02005f00036339
:02006000036b30
:02006100037426
:02006200037c1d
:02006300038513
:02006400038d0a
:02006500039600
:02006600039ef7
:0200670003a6ee
:0200680003afe4
:0200690003b7db
:02006a0003bfd2
:02006b0003c8c8
:02006c0003d0bf
:02006d0003d8b6
:02006e0003e1ac
:02006f0003e9a3
:0200700003f19a
:0200710003f991
:02007200040187
:0200730004097e
:02007400041274
:02007500041a6b
:02007600042262
:02007700042a59
:02007800043250
:02007900043a47
:02007a0004423e
:02007b00044a35
:02007c0004522c
:02007d00045a23
:02007e0004621a
:02007f00046912
:02008000047109
:02008100047900
:020082000481f7
:020083000489ee
:020084000490e6
:020085000498dd
:0200860004a0d4
:0200870004a7cc
:0200880004afc3
:0200890004b7ba
:02008a0004beb2
:02008b0004c6a9
:02008c0004cda1
:02008d0004d598
:02008e0004dc90
:02008f0004e487
:0200900004eb7f
:0200910004f376
:0200920004fa6e
:02009300050264
:0200940005095c
:02009500051054
:0200960005174c
:02009700051f43
:0200980005263b
:02009900052d33
:02009a0005342b
:02009b00053b23
:02009c0005431a
:02009d00054a12
:02009e0005510a
:02009f00055802
:0200a000055ffa
:0200a1000566f2
:0200a200056dea
:0200a3000573e3
:0200a400057adb
:0200a5000581d3
:0200a6000588cb
:0200a700058fc3
:0200a8000596bb
:0200a900059cb4
:0200aa0005a3ac
:0200ab0005aaa4
:0200ac0005b09d
:0200ad0005b795
:0200ae0005bd8e
:0200af0005c486
:0200b00005cb7e
:0200b10005d177
:0200b20005d770
:0200b30005de68
:0200b40005e461
:0200b50005eb59
:0200b60005f152
:0200b70005f74b
:0200b80005fd44
:0200b90006043b
:0200ba00060a34
:0200bb0006102d
:0200bc00061626
:0200bd00061c1f
:0200be00062218
:0200bf00062811
:0200c000062e0a
:0200c100063403
:0200c200063afc
:0200c3000640f5
:0200c4000646ee
:0200c500064ce7
:0200c6000652e0
:0200c7000657da
:0200c800065dd3
:0200c9000663cc
:0200ca000668c6
:0200cb00066ebf
:0200cc000674b8
:0200cd000679b2
:0200ce00067fab
:0200cf000684a5
:0200d000068a9e
:0200d100068f98
:0200d200069492
:0200d300069a8b
:0200d400069f85
:0200d50006a47f
:0200d60006a979
:0200d70006af72
:0200d80006b46c
:0200d90006b966
:0200da0006be60
:0200db0006c35a
:0200dc0006c854
:0200dd0006cd4e
:0200de0006d248
:0200df0006d742
:0200e00006dc3c
:0200e10006e136
:0200e20006e531
:0200e30006ea2b
:0200e40006ef25
:0200e50006f41f
:0200e60006f81a
:0200e70006fd14
:0200e80007010e
:0200e900070608
:0200ea00070a03
:0200eb00070ffd
:0200ec000713f8
:0200ed000718f2
:0200ee00071ced
:0200ef000720e8
:0200f0000724e3
:0200f1000729dd
:0200f200072dd8
:0200f3000731d3
:0200f4000735ce
:0200f5000739c9
:0200f600073dc4
:0200f7000741bf
:0200f8000745ba
:0200f9000749b5
:0200fa00074db0
:0200fb000751ab
:0200fc000754a7
:0200fd000758a2
:0200fe00075c9d
:0200ff00076098
:02010000076393
:0201010007678e
:02010200076a8a
:02010300076e85
:02010400077181
:0201050007757c
:02010600077878
:02010700077b74
:02010800077f6f
:0201090007826b
:02010a00078567
:02010b00078863
:02010c00078c5e
:02010d00078f5a
:02010e00079256
:02010f00079552
:0201100007984e
:02011100079b4a
:02011200079e46
:0201130007a043
:0201140007a33f
:0201150007a63b
:0201160007a937
:0201170007ab34
:0201180007ae30
:0201190007b12c
:02011a0007b329
:02011b0007b625
:02011c0007b822
:02011d0007bb1e
:02011e0007bd1b
:02011f0007bf18
:0201200007c214
:0201210007c411
:0201220007c60e
:0201230007c80b
:0201240007ca08
:0201250007cd04
:0201260007cf01
:0201270007d1fe
:0201280007d3fb
:0201290007d5f8
:02012a0007d6f6
:02012b0007d8f3
:02012c0007daf0
:02012d0007dced
:02012e0007deea
:02012f0007dfe8
:0201300007e1e5
:0201310007e2e3
:0201320007e4e0
:0201330007e6dd
:0201340007e7db
:0201350007e8d9
:0201360007ead6
:0201370007ebd4
:0201380007ecd2
:0201390007eecf
:02013a0007efcd
:02013b0007f0cb
:02013c0007f1c9
:02013d0007f2c7
:02013e0007f3c5
:02013f0007f4c3
:0201400007f5c1
:0201410007f6bf
:0201420007f7bd
:0201430007f8bb
:0201440007f8ba
:0201450007f9b8
:0201460007fab6
:0201470007fbb4
:0201480007fbb3
:0201490007fcb1
:02014a0007fcb0
:02014b0007fdae
:02014c0007fdad
:02014d0007fdac
:02014e0007feaa
:02014f0007fea9
:0201500007fea8
:0201510007ffa6
:0201520007ffa5
:0201530007ffa4
:0201540007ffa3
:0201550007ffa2
:0201560007ffa1
:0201570007ffa0
:0201580007ff9f
:0201590007ff9e
:02015a0007ff9d
:02015b0007fe9d
:02015c0007fe9c
:02015d0007fe9b
:02015e0007fd9b
:02015f0007fd9a
:0201600007fd99
:0201610007fc99
:0201620007fc98
:0201630007fb98
:0201640007fa98
:0201650007fa97
:0201660007f997
:0201670007f897
:0201680007f797
:0201690007f796
:02016a0007f696
:02016b0007f596
:02016c0007f496
:02016d0007f396
:02016e0007f296
:02016f0007f196
:0201700007f096
:0201710007ee97
:0201720007ed97
:0201730007ec97
:0201740007eb97
:0201750007e998
:0201760007e898
:0201770007e699
:0201780007e599
:0201790007e39a
:02017a0007e29a
:02017b0007e09b
:02017c0007df9b
:02017d0007dd9c
:02017e0007db9d
:02017f0007d99e
:0201800007d89e
:0201810007d69f
:0201820007d4a0
:0201830007d2a1
:0201840007d0a2
:0201850007cea3
:0201860007cca4
:0201870007caa5
:0201880007c8a6
:0201890007c5a8
:02018a0007c3a9
:02018b0007c1aa
:02018c0007bfab
:02018d0007bcad
:02018e0007baae
:02018f0007b7b0
:0201900007b5b1
:0201910007b2b3
:0201920007b0b4
:0201930007adb6
:0201940007aab8
:0201950007a8b9
:0201960007a5bb
:0201970007a2bd
:02019800079fbf
:02019900079dc0
:02019a00079ac2
:02019b000797c4
:02019c000794c6
:02019d000791c8
:02019e00078eca
:02019f00078acd
:0201a0000787cf
:0201a1000784d1
:0201a2000781d3
:0201a300077ed5
:0201a400077ad8
:0201a5000777da
:0201a6000774dc
:0201a7000770df
:0201a800076de1
:0201a9000769e4
:0201aa000766e6
:0201ab000762e9
:0201ac00075eec
:0201ad00075bee
:0201ae000757f1
:0201af000753f4
:0201b000074ff7
:0201b100074cf9
:0201b2000748fc
:0201b3000744ff
:0201b400074002
:0201b500073c05
:0201b600073808
:0201b70007340b
:0201b80007300e
:0201b900072b12
:0201ba00072715
:0201bb00072318
:0201bc00071f1b
:0201bd00071a1f
:0201be00071622
:0201bf00071225
:0201c000070d29
:0201c10007092c
:0201c200070430
:0201c300070033
:0201c40006fb38
:0201c50006f73b
:0201c60006f23f
:0201c70006ed43
:0201c80006e946
:0201c90006e44a
:0201ca0006df4e
:0201cb0006da52
:0201cc0006d556
:0201cd0006d05a
:0201ce0006cb5e
:0201cf0006c662
:0201d00006c166
:0201d10006bc6a
:0201d20006b76e
:0201d30006b272
:0201d40006ad76
:0201d50006a87a
:0201d60006a37e
:0201d700069d83
:0201d800069887
:0201d90006938b
:0201da00068d90
:0201db00068894
:0201dc00068299
:0201dd00067d9d
:0201de000677a2
:0201df000672a6
:0201e000066cab
:0201e1000667af
:0201e2000661b4
:0201e300065bb9
:0201e4000655be
:0201e5000650c2
:0201e600064ac7
:0201e7000644cc
:0201e800063ed1
:0201e9000638d6
:0201ea000632db
:0201eb00062ce0
:0201ec000626e5
:0201ed000620ea
:0201ee00061aef
:0201ef000614f4
:0201f000060ef9
:0201f1000608fe
:0201f200060203
:0201f30005fb0a
:0201f40005f50f
:0201f50005ef14
:0201f60005e919
:0201f70005e21f
:0201f80005dc24
:0201f90005d52a
:0201fa0005cf2f
:0201fb0005c835
:0201fc0005c23a
:0201fd0005bb40
:0201fe0005b545
:0201ff0005ae4b
:0202000005a750
:0202010005a155
:02020200059a5b
:02020300059361
:02020400058d66
:0202050005866c
:02020600057f72
:02020700057878
:0202080005717e
:02020900056a84
:02020a0005638a
:02020b00055c90
:02020c00055596
:02020d00054e9c
:02020e000547a2
:02020f000540a8
:020210000539ae
:020211000532b4
:02021200052bba
:020213000524c0
:02021400051cc7
:020215000515cd
:02021600050ed3
:020217000506da
:0202180004ffe1
:0202190004f8e7
:02021a0004f0ee
:02021b0004e9f4
:02021c0004e1fb
:02021d0004da01
:02021e0004d208
:02021f0004cb0e
:0202200004c315
:0202210004bc1b
:0202220004b422
:0202230004ad28
:0202240004a52f
:02022500049d36
:0202260004963c
:02022700048e43
:0202280004864a
:02022900047e51
:02022a00047658
:02022b00046f5e
:02022c00046765
:02022d00045f6c
:02022e00045773
:02022f00044f7a
:02023000044781
:02023100043f88
:0202320004378f
:02023300042f96
:0202340004279d
:02023500041fa4
:020236000417ab
:02023700040fb2
:020238000407b9
:0202390003ffc1
:02023a0003f6c9
:02023b0003eed0
:02023c0003e6d7
:02023d0003dede
:02023e0003d6e5
:02023f0003cded
:0202400003c5f4
:0202410003bdfb
:0202420003b403
:0202430003ac0a
:0202440003a411
:02024500039b19
:02024600039320
:02024700038a28
:0202480003822f
:02024900037937
:02024a0003713e
:02024b00036846
:02024c0003604d
:02024d00035755
:02024e00034f5c
:02024f00034664
:02025000033e6b
:02025100033573
:02025200032c7b
:02025300032482
:02025400031b8a
:02025500031292
:02025600030a99
:020257000301a1
:0202580002f8aa
:0202590002efb2
:02025a0002e7b9
:02025b0002dec1
:02025c0002d5c9
:02025d0002ccd1
:02025e0002c3d9
:02025f0002bae1
:0202600002b2e8
:0202610002a9f0
:0202620002a0f8
:02026300029700
:02026400028e08
:02026500028510
:02026600027c18
:02026700027320
:02026800026a28
:02026900026130
:02026a00025838
:02026b00024f40
:02026c00024648
:02026d00023d50
:02026e00023458
:02026f00022b60
:02027000022268
:02027100021970
:02027200021078
:02027300020780
:0202740001fe89
:0202750001f492
:0202760001eb9a
:0202770001e2a2
:0202780001d9aa
:0202790001d0b2
:02027a0001c7ba
:02027b0001bdc3
:02027c0001b4cb
:02027d0001abd3
:02027e0001a2db
:02027f000199e3
:02028000018fec
:020281000186f4
:02028200017dfc
:02028300017404
:02028400016a0d
:02028500016115
:0202860001581d
:02028700014e26
:0202880001452e
:02028900013c36
:02028a0001333e
:02028b00012947
:02028c0001204f
:02028d00011757
:02028e00010d60
:02028f00010468
:0202900000fb71
:0202910000f17a
:0202920000e882
:0202930000df8a
:0202940000d593
:0202950000cc9b
:0202960000c2a4
:0202970000b9ac
:0202980000b0b4
:0202990000a6bd
:02029a00009dc5
:02029b000093ce
:02029c00008ad6
:02029d000081de
:02029e000077e7
:02029f00006eef
:0202a0000064f8
:0202a100005b00
:0202a200005208
:0202a300004811
:0202a400003f19
:0202a500003522
:0202a600002c2a
:0202a700002332
:0202a80000193b
:0202a900001043
:0202aa0000064c
:0202ab000ffd45
:0202ac000ff34e
:0202ad000fea56
:0202ae000fe15e
:0202af000fd767
:0202b0000fce6f
:0202b1000fc478
:0202b2000fbb80
:0202b3000fb288
:0202b4000fa891
:0202b5000f9f99
:0202b6000f95a2
:0202b7000f8caa
:0202b8000f82b3
:0202b9000f79bb
:0202ba000f70c3
:0202bb000f66cc
:0202bc000f5dd4
:0202bd000f54dc
:0202be000f4ae5
:0202bf000f41ed
:0202c0000f37f6
:0202c1000f2efe
:0202c2000f2506
:0202c3000f1b0f
:0202c4000f1217
:0202c5000f091f
:0202c6000eff29
:0202c7000ef631
:0202c8000eed39
:0202c9000ee342
:0202ca000eda4a
:0202cb000ed152
:0202cc000ec75b
:0202cd000ebe63
:0202ce000eb56b
:0202cf000eab74
:0202d0000ea27c
:0202d1000e9984
:0202d2000e8f8d
:0202d3000e8695
:0202d4000e7d9d
:0202d5000e74a5
:0202d6000e6aae
:0202d7000e61b6
:0202d8000e58be
:0202d9000e4fc6
:0202da000e46ce
:0202db000e3cd7
:0202dc000e33df
:0202dd000e2ae7
:0202de000e21ef
:0202df000e18f7
:0202e0000e0fff
:0202e1000e0508
:0202e2000dfc11
:0202e3000df319
:0202e4000dea21
:0202e5000de129
:0202e6000dd831
:0202e7000dcf39
:0202e8000dc641
:0202e9000dbd49
:0202ea000db451
:0202eb000dab59
:0202ec000da261
:0202ed000d9969
:0202ee000d9071
:0202ef000d8779
:0202f0000d7e81
:0202f1000d7589
:0202f2000d6c91
:0202f3000d6399
:0202f4000d5aa1
:0202f5000d51a9
:0202f6000d48b1
:0202f7000d40b8
:0202f8000d37c0
:0202f9000d2ec8
:0202fa000d25d0
:0202fb000d1cd8
:0202fc000d14df
:0202fd000d0be7
:0202fe000d02ef
:0202ff000cf9f8
:020300000cf1fe
:020301000ce806
:020302000cdf0e
:020303000cd715
:020304000cce1d
:020305000cc525
:020306000cbd2c
:020307000cb434
:020308000cac3b
:020309000ca343
:02030a000c9a4b
:02030b000c9252
:02030c000c895a
:02030d000c8161
:02030e000c7968
:02030f000c7070
:020310000c6877
:020311000c5f7f
:020312000c5786
:020313000c4e8e
:020314000c4695
:020315000c3e9c
:020316000c36a3
:020317000c2dab
:020318000c25b2
:020319000c1db9
:02031a000c15c0
:02031b000c0cc8
:02031c000c04cf
:02031d000bfcd7
:02031e000bf4de
:02031f000bece5
:020320000be4ec
:020321000bdcf3
:020322000bd4fa
:020323000bcb02
:020324000bc309
:020325000bbc0f
:020326000bb416
:020327000bac1d
:020328000ba424
:020329000b9c2b
:02032a000b9432
:02032b000b8c39
:02032c000b8440
:02032d000b7d46
:02032e000b754d
:02032f000b6d54
:020330000b655b
:020331000b5e61
:020332000b5668
:020333000b4e6f
:020334000b4775
:020335000b3f7c
:020336000b3882
:020337000b3089
:020338000b298f
:020339000b2196
:02033a000b1a9c
:02033b000b12a3
:02033c000b0ba9
:02033d000b03b0
:02033e000afcb7
:02033f000af5bd
:020340000aedc4
:020341000ae6ca
:020342000adfd0
:020343000ad8d6
:020344000ad0dd
:020345000ac9e3
:020346000ac2e9
:020347000abbef
:020348000ab4f5
:020349000aadfb
:02034a000aa601
:02034b000a9f07
:02034c000a980d
:02034d000a9113
:02034e000a8a19
:02034f000a831f
:020350000a7d24
:020351000a762a
:020352000a6f30
:020353000a6836
:020354000a613c
:020355000a5b41
:020356000a5447
:020357000a4d4d
:020358000a4752
:020359000a4058
:02035a000a3a5d
:02035b000a3363
:02035c000a2d68
:02035d000a266e
:02035e000a2073
:02035f000a1a78
:020360000a137e
:020361000a0d83
:020362000a0788
:020363000a008e
:0203640009fa94
:0203650009f499
:0203660009ee9e
:0203670009e8a3
:0203680009e2a8
:0203690009dcad
:02036a0009d6b2
:02036b0009d0b7
:02036c0009cabc
:02036d0009c4c1
:02036e0009bec6
:02036f0009b8cb
:0203700009b2d0
:0203710009acd5
:0203720009a7d9
:0203730009a1de
:02037400099be3
:020375000996e7
:020376000990ec
:02037700098bf0
:020378000985f5
:02037900097ffa
:02037a00097afe
:02037b00097502
:02037c00096f07
:02037d00096a0b
:02037e0009650f
:02037f00095f14
:02038000095a18
:0203810009551c
:02038200095020
:02038300094a25
:02038400094529
:0203850009402d
:02038600093b31
:02038700093635
:02038800093139
:02038900092c3d
:02038a00092741
:02038b00092344
:02038c00091e48
:02038d0009194c
:02038e00091450
:02038f00091053
:02039000090b57
:0203910009065b
:0203920009025e
:0203930008fd63
:0203940008f966
:0203950008f46a
:0203960008f06d
:0203970008eb71
:0203980008e774
:0203990008e377
:02039a0008de7b
:02039b0008da7e
:02039c0008d681
:02039d0008d284
:02039e0008ce87
:02039f0008ca8a
:0203a00008c68d
:0203a10008c290
:0203a20008be93
:0203a30008ba96
:0203a40008b699
:0203a50008b29c
:0203a60008ae9f
:0203a70008aaa2
:0203a80008a7a4
:0203a90008a3a7
:0203aa00089faa
:0203ab00089cac
:0203ac000898af
:0203ad000895b1
:0203ae000891b4
:0203af00088eb6
:0203b000088ab9
:0203b1000887bb
:0203b2000883be
:0203b3000880c0
:0203b400087dc2
:0203b500087ac4
:0203b6000877c6
:0203b7000873c9
:0203b8000870cb
:0203b900086dcd
:0203ba00086acf
:0203bb000867d1
:0203bc000864d3
:0203bd000862d4
:0203be00085fd6
:0203bf00085cd8
:0203c0000859da
:0203c1000856dc
:0203c2000854dd
:0203c3000851df
:0203c400084fe0
:0203c500084ce2
:0203c6000849e4
:0203c7000847e5
:0203c8000845e6
:0203c9000842e8
:0203ca000840e9
:0203cb00083eea
:0203cc00083bec
:0203cd000839ed
:0203ce000837ee
:0203cf000835ef
:0203d0000833f0
:0203d1000831f1
:0203d200082ff2
:0203d300082df3
:0203d400082bf4
:0203d5000829f5
:0203d6000827f6
:0203d7000825f7
:0203d8000824f7
:0203d9000822f8
:0203da000820f9
:0203db00081ff9
:0203dc00081dfa
:0203dd00081bfb
:0203de00081afb
:0203df000819fb
:0203e0000817fc
:0203e1000816fc
:0203e2000814fd
:0203e3000813fd
:0203e4000812fd
:0203e5000811fd
:0203e6000810fd
:0203e700080ffd
:0203e800080dfe
:0203e900080cfe
:0203ea00080bfe
:0203eb00080bfd
:0203ec00080afd
:0203ed000809fd
:0203ee000808fd
:0203ef000807fd
:0203f0000807fc
:0203f1000806fc
:0203f2000805fc
:0203f3000805fb
:0203f4000804fb
:0203f5000804fa
:0203f6000803fa
:0203f7000803f9
:0203f8000802f9
:0203f9000802f8
:0203fa000802f7
:0203fb000802f6
:0203fc000801f6
:0203fd000801f5
:0203fe000801f4
:0203ff000801f3
:00000001FF
