:020000000000fe
:020001000003fa
:020002000006f6
:020003000009f2
:02000400000ded
:020005000010e9
:020006000013e5
:020007000016e1
:020008000019dd
:02000900001cd9
:02000a00001fd5
:02000b000023d0
:02000c000026cc
:02000d000029c8
:02000e00002cc4
:02000f00002fc0
:020010000032bc
:020011000035b8
:020012000039b3
:02001300003caf
:02001400003fab
:020015000042a7
:020016000045a3
:0200170000489f
:02001800004b9b
:02001900004e97
:02001a00005292
:02001b0000558e
:02001c0000588a
:02001d00005b86
:02001e00005e82
:02001f0000617e
:0200200000647a
:02002100006875
:02002200006b71
:02002300006e6d
:02002400007169
:02002500007465
:02002600007761
:02002700007a5d
:02002800007e58
:02002900008154
:02002a00008450
:02002b0000874c
:02002c00008a48
:02002d00008d44
:02002e00009040
:02002f0000933c
:02003000009737
:02003100009a33
:02003200009d2f
:0200330000a02b
:0200340000a327
:0200350000a623
:0200360000a91f
:0200370000ac1b
:0200380000b016
:0200390000b312
:02003a0000b60e
:02003b0000b90a
:02003c0000bc06
:02003d0000bf02
:02003e0000c2fe
:02003f0000c6f9
:0200400000c9f5
:0200410000ccf1
:0200420000cfed
:0200430000d2e9
:0200440000d5e5
:0200450000d8e1
:0200460000dbdd
:0200470000dfd8
:0200480000e2d4
:0200490000e5d0
:02004a0000e8cc
:02004b0000ebc8
:02004c0000eec4
:02004d0000f1c0
:02004e0000f4bc
:02004f0000f7b8
:0200500000fbb3
:0200510000feaf
:020052000101aa
:020053000104a6
:020054000107a2
:02005500010a9e
:02005600010d9a
:02005700011096
:02005800011392
:0200590001178d
:02005a00011a89
:02005b00011d85
:02005c00012081
:02005d0001237d
:02005e00012679
:02005f00012975
:02006000012c71
:02006100012f6d
:02006200013368
:02006300013664
:02006400013960
:02006500013c5c
:02006600013f58
:02006700014254
:02006800014550
:0200690001484c
:02006a00014b48
:02006b00014e44
:02006c0001523f
:02006d0001553b
:02006e00015837
:02006f00015b33
:02007000015e2f
:0200710001612b
:02007200016427
:02007300016723
:02007400016a1f
:02007500016d1b
:02007600017116
:02007700017412
:0200780001770e
:02007900017a0a
:02007a00017d06
:02007b00018002
:02007c000183fe
:02007d000186fa
:02007e000189f6
:02007f00018cf2
:02008000018fee
:020081000192ea
:020082000196e5
:020083000199e1
:02008400019cdd
:02008500019fd9
:0200860001a2d5
:0200870001a5d1
:0200880001a8cd
:0200890001abc9
:02008a0001aec5
:02008b0001b1c1
:02008c0001b4bd
:02008d0001b7b9
:02008e0001bab5
:02008f0001bdb1
:0200900001c1ac
:0200910001c4a8
:0200920001c7a4
:0200930001caa0
:0200940001cd9c
:0200950001d098
:0200960001d394
:0200970001d690
:0200980001d98c
:0200990001dc88
:02009a0001df84
:02009b0001e280
:02009c0001e57c
:02009d0001e878
:02009e0001eb74
:02009f0001ee70
:0200a00001f16c
:0200a10001f468
:0200a20001f764
:0200a30001fb5f
:0200a40001fe5b
:0200a500020156
:0200a600020452
:0200a70002074e
:0200a800020a4a
:0200a900020d46
:0200aa00021042
:0200ab0002133e
:0200ac0002163a
:0200ad00021936
:0200ae00021c32
:0200af00021f2e
:0200b00002222a
:0200b100022526
:0200b200022822
:0200b300022b1e
:0200b400022e1a
:0200b500023116
:0200b600023412
:0200b70002370e
:0200b800023a0a
:0200b900023d06
:0200ba00024002
:0200bb000243fe
:0200bc000246fa
:0200bd000249f6
:0200be00024cf2
:0200bf00024fee
:0200c0000252ea
:0200c1000255e6
:0200c2000258e2
:0200c300025bde
:0200c400025eda
:0200c5000261d6
:0200c6000264d2
:0200c7000267ce
:0200c800026aca
:0200c900026dc6
:0200ca000270c2
:0200cb000273be
:0200cc000276ba
:0200cd000279b6
:0200ce00027cb2
:0200cf00027fae
:0200d0000282aa
:0200d1000285a6
:0200d2000288a2
:0200d300028b9e
:0200d400028e9a
:0200d500029196
:0200d600029492
:0200d70002978e
:0200d800029a8a
:0200d900029d86
:0200da0002a082
:0200db0002a37e
:0200dc0002a67a
:0200dd0002a976
:0200de0002ac72
:0200df0002af6e
:0200e00002b26a
:0200e10002b566
:0200e20002b862
:0200e30002ba5f
:0200e40002bd5b
:0200e50002c057
:0200e60002c353
:0200e70002c64f
:0200e80002c94b
:0200e90002cc47
:0200ea0002cf43
:0200eb0002d23f
:0200ec0002d53b
:0200ed0002d837
:0200ee0002db33
:0200ef0002de2f
:0200f00002e12b
:0200f10002e427
:0200f20002e723
:0200f30002e920
:0200f40002ec1c
:0200f50002ef18
:0200f60002f214
:0200f70002f510
:0200f80002f80c
:0200f90002fb08
:0200fa0002fe04
:0200fb000301ff
:0200fc000304fb
:0200fd000307f7
:0200fe00030af3
:0200ff00030cf0
:02010000030feb
:020101000312e7
:020102000315e3
:020103000318df
:02010400031bdb
:02010500031ed7
:020106000321d3
:020107000324cf
:020108000327cb
:020109000329c8
:02010a00032cc4
:02010b00032fc0
:02010c000332bc
:02010d000335b8
:02010e000338b4
:02010f00033bb0
:02011000033eac
:020111000340a9
:020112000343a5
:020113000346a1
:0201140003499d
:02011500034c99
:02011600034f95
:02011700035291
:0201180003548e
:0201190003578a
:02011a00035a86
:02011b00035d82
:02011c0003607e
:02011d0003637a
:02011e00036676
:02011f00036873
:02012000036b6f
:02012100036e6b
:02012200037167
:02012300037463
:0201240003775f
:0201250003795c
:02012600037c58
:02012700037f54
:02012800038250
:0201290003854c
:02012a00038749
:02012b00038a45
:02012c00038d41
:02012d0003903d
:02012e00039339
:02012f00039635
:02013000039832
:02013100039b2e
:02013200039e2a
:0201330003a126
:0201340003a422
:0201350003a61f
:0201360003a91b
:0201370003ac17
:0201380003af13
:0201390003b20f
:02013a0003b40c
:02013b0003b708
:02013c0003ba04
:02013d0003bd00
:02013e0003bffd
:02013f0003c2f9
:0201400003c5f5
:0201410003c8f1
:0201420003caee
:0201430003cdea
:0201440003d0e6
:0201450003d3e2
:0201460003d6de
:0201470003d8db
:0201480003dbd7
:0201490003ded3
:02014a0003e1cf
:02014b0003e3cc
:02014c0003e6c8
:02014d0003e9c4
:02014e0003ebc1
:02014f0003eebd
:0201500003f1b9
:0201510003f4b5
:0201520003f6b2
:0201530003f9ae
:0201540003fcaa
:0201550003ffa6
:020156000401a2
:0201570004049e
:0201580004079a
:02015900040997
:02015a00040c93
:02015b00040f8f
:02015c0004128b
:02015d00041488
:02015e00041784
:02015f00041a80
:02016000041c7d
:02016100041f79
:02016200042275
:02016300042472
:0201640004276e
:02016500042a6a
:02016600042c67
:02016700042f63
:0201680004325f
:0201690004355b
:02016a00043758
:02016b00043a54
:02016c00043d50
:02016d00043f4d
:02016e00044249
:02016f00044446
:02017000044742
:02017100044a3e
:02017200044c3b
:02017300044f37
:02017400045233
:02017500045430
:0201760004572c
:02017700045a28
:02017800045c25
:02017900045f21
:02017a0004621d
:02017b0004641a
:02017c00046716
:02017d00046913
:02017e00046c0f
:02017f00046f0b
:02018000047108
:02018100047404
:02018200047601
:020183000479fd
:02018400047cf9
:02018500047ef6
:020186000481f2
:020187000483ef
:020188000486eb
:020189000489e7
:02018a00048be4
:02018b00048ee0
:02018c000490dd
:02018d000493d9
:02018e000496d5
:02018f000498d2
:02019000049bce
:02019100049dcb
:0201920004a0c7
:0201930004a2c4
:0201940004a5c0
:0201950004a7bd
:0201960004aab9
:0201970004adb5
:0201980004afb2
:0201990004b2ae
:02019a0004b4ab
:02019b0004b7a7
:02019c0004b9a4
:02019d0004bca0
:02019e0004be9d
:02019f0004c199
:0201a00004c396
:0201a10004c692
:0201a20004c88f
:0201a30004cb8b
:0201a40004cd88
:0201a50004d084
:0201a60004d281
:0201a70004d57d
:0201a80004d77a
:0201a90004da76
:0201aa0004dc73
:0201ab0004df6f
:0201ac0004e16c
:0201ad0004e468
:0201ae0004e665
:0201af0004e961
:0201b00004eb5e
:0201b10004ee5a
:0201b20004f057
:0201b30004f353
:0201b40004f550
:0201b50004f84c
:0201b60004fa49
:0201b70004fd45
:0201b80004ff42
:0201b90005023d
:0201ba0005043a
:0201bb00050637
:0201bc00050933
:0201bd00050b30
:0201be00050e2c
:0201bf00051029
:0201c000051325
:0201c100051522
:0201c20005171f
:0201c300051a1b
:0201c400051c18
:0201c500051f14
:0201c600052111
:0201c70005240d
:0201c80005260a
:0201c900052807
:0201ca00052b03
:0201cb00052d00
:0201cc000530fc
:0201cd000532f9
:0201ce000534f6
:0201cf000537f2
:0201d0000539ef
:0201d100053bec
:0201d200053ee8
:0201d3000540e5
:0201d4000543e1
:0201d5000545de
:0201d6000547db
:0201d700054ad7
:0201d800054cd4
:0201d900054ed1
:0201da000551cd
:0201db000553ca
:0201dc000555c7
:0201dd000558c3
:0201de00055ac0
:0201df00055cbd
:0201e000055fb9
:0201e1000561b6
:0201e2000563b3
:0201e3000566af
:0201e4000568ac
:0201e500056aa9
:0201e600056da5
:0201e700056fa2
:0201e80005719f
:0201e90005739c
:0201ea00057698
:0201eb00057895
:0201ec00057a92
:0201ed00057d8e
:0201ee00057f8b
:0201ef00058188
:0201f000058385
:0201f100058681
:0201f20005887e
:0201f300058a7b
:0201f400058d77
:0201f500058f74
:0201f600059171
:0201f70005936e
:0201f80005966a
:0201f900059867
:0201fa00059a64
:0201fb00059c61
:0201fc00059f5d
:0201fd0005a15a
:0201fe0005a357
:0201ff0005a554
:0202000005a750
:0202010005aa4c
:0202020005ac49
:0202030005ae46
:0202040005b043
:0202050005b33f
:0202060005b53c
:0202070005b739
:0202080005b936
:0202090005bb33
:02020a0005bd30
:02020b0005c02c
:02020c0005c229
:02020d0005c426
:02020e0005c623
:02020f0005c820
:0202100005cb1c
:0202110005cd19
:0202120005cf16
:0202130005d113
:0202140005d310
:0202150005d50d
:0202160005d70a
:0202170005da06
:0202180005dc03
:0202190005de00
:02021a0005e0fd
:02021b0005e2fa
:02021c0005e4f7
:02021d0005e6f4
:02021e0005e9f0
:02021f0005ebed
:0202200005edea
:0202210005efe7
:0202220005f1e4
:0202230005f3e1
:0202240005f5de
:0202250005f7db
:0202260005f9d8
:0202270005fbd5
:0202280005fdd2
:020229000600cd
:02022a000602ca
:02022b000604c7
:02022c000606c4
:02022d000608c1
:02022e00060abe
:02022f00060cbb
:02023000060eb8
:020231000610b5
:020232000612b2
:020233000614af
:020234000616ac
:020235000618a9
:02023600061aa6
:02023700061ca3
:02023800061ea0
:0202390006209d
:02023a0006229a
:02023b00062497
:02023c00062694
:02023d00062891
:02023e00062a8e
:02023f00062c8b
:02024000062e88
:02024100063085
:02024200063282
:0202430006347f
:0202440006367c
:02024500063879
:02024600063a76
:02024700063c73
:02024800063e70
:0202490006406d
:02024a0006426a
:02024b00064467
:02024c00064664
:02024d00064861
:02024e00064a5e
:02024f00064c5b
:02025000064e58
:02025100065055
:02025200065252
:0202530006544f
:0202540006554d
:0202550006574a
:02025600065947
:02025700065b44
:02025800065d41
:02025900065f3e
:02025a0006613b
:02025b00066338
:02025c00066535
:02025d00066732
:02025e00066830
:02025f00066a2d
:02026000066c2a
:02026100066e27
:02026200067024
:02026300067221
:0202640006741e
:0202650006751c
:02026600067719
:02026700067916
:02026800067b13
:02026900067d10
:02026a00067f0d
:02026b0006810a
:02026c00068208
:02026d00068405
:02026e00068602
:02026f000688ff
:02027000068afc
:02027100068bfa
:02027200068df7
:02027300068ff4
:020274000691f1
:020275000693ee
:020276000694ec
:020277000696e9
:020278000698e6
:02027900069ae3
:02027a00069be1
:02027b00069dde
:02027c00069fdb
:02027d0006a1d8
:02027e0006a3d5
:02027f0006a4d3
:0202800006a6d0
:0202810006a8cd
:0202820006a9cb
:0202830006abc8
:0202840006adc5
:0202850006afc2
:0202860006b0c0
:0202870006b2bd
:0202880006b4ba
:0202890006b6b7
:02028a0006b7b5
:02028b0006b9b2
:02028c0006bbaf
:02028d0006bcad
:02028e0006beaa
:02028f0006c0a7
:0202900006c1a5
:0202910006c3a2
:0202920006c59f
:0202930006c69d
:0202940006c89a
:0202950006ca97
:0202960006cb95
:0202970006cd92
:0202980006cf8f
:0202990006d08d
:02029a0006d28a
:02029b0006d487
:02029c0006d585
:02029d0006d782
:02029e0006d97f
:02029f0006da7d
:0202a00006dc7a
:0202a10006dd78
:0202a20006df75
:0202a30006e172
:0202a40006e270
:0202a50006e46d
:0202a60006e56b
:0202a70006e768
:0202a80006e965
:0202a90006ea63
:0202aa0006ec60
:0202ab0006ed5e
:0202ac0006ef5b
:0202ad0006f059
:0202ae0006f256
:0202af0006f453
:0202b00006f551
:0202b10006f74e
:0202b20006f84c
:0202b30006fa49
:0202b40006fb47
:0202b50006fd44
:0202b60006fe42
:0202b70007003e
:0202b80007013c
:0202b900070339
:0202ba00070437
:0202bb00070634
:0202bc00070732
:0202bd0007092f
:0202be00070a2d
:0202bf00070c2a
:0202c000070d28
:0202c100070f25
:0202c200071023
:0202c300071220
:0202c40007131e
:0202c50007151b
:0202c600071619
:0202c700071816
:0202c800071914
:0202c900071a12
:0202ca00071c0f
:0202cb00071d0d
:0202cc00071f0a
:0202cd00072008
:0202ce00072205
:0202cf00072303
:0202d000072401
:0202d1000726fe
:0202d2000727fc
:0202d3000729f9
:0202d400072af7
:0202d500072bf5
:0202d600072df2
:0202d700072ef0
:0202d8000730ed
:0202d9000731eb
:0202da000732e9
:0202db000734e6
:0202dc000735e4
:0202dd000736e2
:0202de000738df
:0202df000739dd
:0202e000073adb
:0202e100073cd8
:0202e200073dd6
:0202e300073ed4
:0202e4000740d1
:0202e5000741cf
:0202e6000742cd
:0202e7000744ca
:0202e8000745c8
:0202e9000746c6
:0202ea000748c3
:0202eb000749c1
:0202ec00074abf
:0202ed00074cbc
:0202ee00074dba
:0202ef00074eb8
:0202f000074fb6
:0202f1000751b3
:0202f2000752b1
:0202f3000753af
:0202f4000754ad
:0202f5000756aa
:0202f6000757a8
:0202f7000758a6
:0202f8000759a4
:0202f900075ba1
:0202fa00075c9f
:0202fb00075d9d
:0202fc00075e9b
:0202fd00076098
:0202fe00076196
:0202ff00076294
:02030000076391
:0203010007648f
:0203020007668c
:0203030007678a
:02030400076888
:02030500076986
:02030600076a84
:02030700076b82
:02030800076d7f
:02030900076e7d
:02030a00076f7b
:02030b00077079
:02030c00077177
:02030d00077275
:02030e00077472
:02030f00077570
:0203100007766e
:0203110007776c
:0203120007786a
:02031300077968
:02031400077a66
:02031500077b64
:02031600077d61
:02031700077e5f
:02031800077f5d
:0203190007805b
:02031a00078159
:02031b00078257
:02031c00078355
:02031d00078453
:02031e00078551
:02031f0007864f
:0203200007874d
:0203210007884b
:02032200078949
:02032300078a47
:02032400078c44
:02032500078d42
:02032600078e40
:02032700078f3e
:0203280007903c
:0203290007913a
:02032a00079238
:02032b00079336
:02032c00079434
:02032d00079532
:02032e00079630
:02032f0007972e
:0203300007982c
:0203310007992a
:02033200079a28
:02033300079b26
:02033400079c24
:02033500079d22
:02033600079e20
:02033700079e1f
:02033800079f1d
:0203390007a01b
:02033a0007a119
:02033b0007a217
:02033c0007a315
:02033d0007a413
:02033e0007a511
:02033f0007a60f
:0203400007a70d
:0203410007a80b
:0203420007a909
:0203430007aa07
:0203440007aa06
:0203450007ab04
:0203460007ac02
:0203470007ad00
:0203480007aefe
:0203490007affc
:02034a0007b0fa
:02034b0007b1f8
:02034c0007b1f7
:02034d0007b2f5
:02034e0007b3f3
:02034f0007b4f1
:0203500007b5ef
:0203510007b6ed
:0203520007b7eb
:0203530007b7ea
:0203540007b8e8
:0203550007b9e6
:0203560007bae4
:0203570007bbe2
:0203580007bbe1
:0203590007bcdf
:02035a0007bddd
:02035b0007bedb
:02035c0007bfd9
:02035d0007bfd8
:02035e0007c0d6
:02035f0007c1d4
:0203600007c2d2
:0203610007c2d1
:0203620007c3cf
:0203630007c4cd
:0203640007c5cb
:0203650007c5ca
:0203660007c6c8
:0203670007c7c6
:0203680007c8c4
:0203690007c8c3
:02036a0007c9c1
:02036b0007cabf
:02036c0007cabe
:02036d0007cbbc
:02036e0007ccba
:02036f0007cdb8
:0203700007cdb7
:0203710007ceb5
:0203720007cfb3
:0203730007cfb2
:0203740007d0b0
:0203750007d1ae
:0203760007d1ad
:0203770007d2ab
:0203780007d3a9
:0203790007d3a8
:02037a0007d4a6
:02037b0007d5a4
:02037c0007d5a3
:02037d0007d6a1
:02037e0007d6a0
:02037f0007d79e
:0203800007d89c
:0203810007d89b
:0203820007d999
:0203830007d998
:0203840007da96
:0203850007db94
:0203860007db93
:0203870007dc91
:0203880007dc90
:0203890007dd8e
:02038a0007de8c
:02038b0007de8b
:02038c0007df89
:02038d0007df88
:02038e0007e086
:02038f0007e085
:0203900007e183
:0203910007e182
:0203920007e280
:0203930007e27f
:0203940007e37d
:0203950007e37c
:0203960007e47a
:0203970007e578
:0203980007e577
:0203990007e675
:02039a0007e674
:02039b0007e673
:02039c0007e771
:02039d0007e770
:02039e0007e86e
:02039f0007e86d
:0203a00007e96b
:0203a10007e96a
:0203a20007ea68
:0203a30007ea67
:0203a40007eb65
:0203a50007eb64
:0203a60007ec62
:0203a70007ec61
:0203a80007ec60
:0203a90007ed5e
:0203aa0007ed5d
:0203ab0007ee5b
:0203ac0007ee5a
:0203ad0007ee59
:0203ae0007ef57
:0203af0007ef56
:0203b00007f054
:0203b10007f053
:0203b20007f052
:0203b30007f150
:0203b40007f14f
:0203b50007f14e
:0203b60007f24c
:0203b70007f24b
:0203b80007f349
:0203b90007f348
:0203ba0007f347
:0203bb0007f445
:0203bc0007f444
:0203bd0007f443
:0203be0007f541
:0203bf0007f540
:0203c00007f53f
:0203c10007f53e
:0203c20007f63c
:0203c30007f63b
:0203c40007f63a
:0203c50007f738
:0203c60007f737
:0203c70007f736
:0203c80007f735
:0203c90007f833
:0203ca0007f832
:0203cb0007f831
:0203cc0007f830
:0203cd0007f92e
:0203ce0007f92d
:0203cf0007f92c
:0203d00007f92b
:0203d10007fa29
:0203d20007fa28
:0203d30007fa27
:0203d40007fa26
:0203d50007fb24
:0203d60007fb23
:0203d70007fb22
:0203d80007fb21
:0203d90007fb20
:0203da0007fc1e
:0203db0007fc1d
:0203dc0007fc1c
:0203dd0007fc1b
:0203de0007fc1a
:0203df0007fc19
:0203e00007fd17
:0203e10007fd16
:0203e20007fd15
:0203e30007fd14
:0203e40007fd13
:0203e50007fd12
:0203e60007fd11
:0203e70007fd10
:0203e80007fe0e
:0203e90007fe0d
:0203ea0007fe0c
:0203eb0007fe0b
:0203ec0007fe0a
:0203ed0007fe09
:0203ee0007fe08
:0203ef0007fe07
:0203f00007fe06
:0203f10007fe05
:0203f20007ff03
:0203f30007ff02
:0203f40007ff01
:0203f50007ff00
:0203f60007ffff
:0203f70007fffe
:0203f80007fffd
:0203f90007fffc
:0203fa0007fffb
:0203fb0007fffa
:0203fc0007fff9
:0203fd0007fff8
:0203fe0007fff7
:0203ff0007fff6
:00000001FF
