:0200000007fff8
:0200010007fff7
:0200020007fff6
:0200030007fff5
:0200040007fff4
:0200050007fff3
:0200060007fff2
:0200070007fff1
:0200080007fff0
:0200090007ffef
:02000a0007ffee
:02000b0007ffed
:02000c0007ffec
:02000d0007ffeb
:02000e0007ffea
:02000f0007feea
:0200100007fee9
:0200110007fee8
:0200120007fee7
:0200130007fee6
:0200140007fee5
:0200150007fee4
:0200160007fee3
:0200170007fee2
:0200180007fee1
:0200190007fde1
:02001a0007fde0
:02001b0007fddf
:02001c0007fdde
:02001d0007fddd
:02001e0007fddc
:02001f0007fddb
:0200200007fdda
:0200210007fcda
:0200220007fcd9
:0200230007fcd8
:0200240007fcd7
:0200250007fcd6
:0200260007fcd5
:0200270007fbd5
:0200280007fbd4
:0200290007fbd3
:02002a0007fbd2
:02002b0007fbd1
:02002c0007fad1
:02002d0007fad0
:02002e0007facf
:02002f0007face
:0200300007f9ce
:0200310007f9cd
:0200320007f9cc
:0200330007f9cb
:0200340007f8cb
:0200350007f8ca
:0200360007f8c9
:0200370007f8c8
:0200380007f7c8
:0200390007f7c7
:02003a0007f7c6
:02003b0007f7c5
:02003c0007f6c5
:02003d0007f6c4
:02003e0007f6c3
:02003f0007f5c3
:0200400007f5c2
:0200410007f5c1
:0200420007f5c0
:0200430007f4c0
:0200440007f4bf
:0200450007f4be
:0200460007f3be
:0200470007f3bd
:0200480007f3bc
:0200490007f2bc
:02004a0007f2bb
:02004b0007f1bb
:02004c0007f1ba
:02004d0007f1b9
:02004e0007f0b9
:02004f0007f0b8
:0200500007f0b7
:0200510007efb7
:0200520007efb6
:0200530007eeb6
:0200540007eeb5
:0200550007eeb4
:0200560007edb4
:0200570007edb3
:0200580007ecb3
:0200590007ecb2
:02005a0007ecb1
:02005b0007ebb1
:02005c0007ebb0
:02005d0007eab0
:02005e0007eaaf
:02005f0007e9af
:0200600007e9ae
:0200610007e8ae
:0200620007e8ad
:0200630007e7ad
:0200640007e7ac
:0200650007e6ac
:0200660007e6ab
:0200670007e6aa
:0200680007e5aa
:0200690007e5a9
:02006a0007e4a9
:02006b0007e3a9
:02006c0007e3a8
:02006d0007e2a8
:02006e0007e2a7
:02006f0007e1a7
:0200700007e1a6
:0200710007e0a6
:0200720007e0a5
:0200730007dfa5
:0200740007dfa4
:0200750007dea4
:0200760007dea3
:0200770007dda3
:0200780007dca3
:0200790007dca2
:02007a0007dba2
:02007b0007dba1
:02007c0007daa1
:02007d0007d9a1
:02007e0007d9a0
:02007f0007d8a0
:0200800007d89f
:0200810007d79f
:0200820007d69f
:0200830007d69e
:0200840007d59e
:0200850007d59d
:0200860007d49d
:0200870007d39d
:0200880007d39c
:0200890007d29c
:02008a0007d19c
:02008b0007d19b
:02008c0007d09b
:02008d0007cf9b
:02008e0007cf9a
:02008f0007ce9a
:0200900007cd9a
:0200910007cd99
:0200920007cc99
:0200930007cb99
:0200940007ca99
:0200950007ca98
:0200960007c998
:0200970007c898
:0200980007c897
:0200990007c797
:02009a0007c697
:02009b0007c597
:02009c0007c596
:02009d0007c496
:02009e0007c396
:02009f0007c296
:0200a00007c295
:0200a10007c195
:0200a20007c095
:0200a30007bf95
:0200a40007bf94
:0200a50007be94
:0200a60007bd94
:0200a70007bc94
:0200a80007bb94
:0200a90007bb93
:0200aa0007ba93
:0200ab0007b993
:0200ac0007b893
:0200ad0007b793
:0200ae0007b792
:0200af0007b692
:0200b00007b592
:0200b10007b492
:0200b20007b392
:0200b30007b292
:0200b40007b192
:0200b50007b191
:0200b60007b091
:0200b70007af91
:0200b80007ae91
:0200b90007ad91
:0200ba0007ac91
:0200bb0007ab91
:0200bc0007aa91
:0200bd0007aa90
:0200be0007a990
:0200bf0007a890
:0200c00007a790
:0200c10007a690
:0200c20007a590
:0200c30007a490
:0200c40007a390
:0200c50007a290
:0200c60007a190
:0200c70007a090
:0200c800079f90
:0200c900079e90
:0200ca00079e8f
:0200cb00079d8f
:0200cc00079c8f
:0200cd00079b8f
:0200ce00079a8f
:0200cf0007998f
:0200d00007988f
:0200d10007978f
:0200d20007968f
:0200d30007958f
:0200d40007948f
:0200d50007938f
:0200d60007928f
:0200d70007918f
:0200d80007908f
:0200d900078f8f
:0200da00078e8f
:0200db00078d8f
:0200dc00078c8f
:0200dd00078a90
:0200de00078990
:0200df00078890
:0200e000078790
:0200e100078690
:0200e200078590
:0200e300078490
:0200e400078390
:0200e500078290
:0200e600078190
:0200e700078090
:0200e800077f90
:0200e900077e90
:0200ea00077d90
:0200eb00077b91
:0200ec00077a91
:0200ed00077991
:0200ee00077891
:0200ef00077791
:0200f000077691
:0200f100077591
:0200f200077491
:0200f300077292
:0200f400077192
:0200f500077092
:0200f600076f92
:0200f700076e92
:0200f800076d92
:0200f900076b93
:0200fa00076a93
:0200fb00076993
:0200fc00076893
:0200fd00076793
:0200fe00076693
:0200ff00076494
:02010000076393
:02010100076293
:02010200076193
:02010300076093
:02010400075e94
:02010500075d94
:02010600075c94
:02010700075b94
:02010800075995
:02010900075895
:02010a00075795
:02010b00075695
:02010c00075496
:02010d00075396
:02010e00075296
:02010f00075196
:02011000074f97
:02011100074e97
:02011200074d97
:02011300074c97
:02011400074a98
:02011500074998
:02011600074898
:02011700074699
:02011800074599
:02011900074499
:02011a0007429a
:02011b0007419a
:02011c0007409a
:02011d00073e9b
:02011e00073d9b
:02011f00073c9b
:02012000073a9c
:0201210007399c
:0201220007389c
:0201230007369d
:0201240007359d
:0201250007349d
:0201260007329e
:0201270007319e
:0201280007309e
:02012900072e9f
:02012a00072d9f
:02012b00072ba0
:02012c00072aa0
:02012d000729a0
:02012e000727a1
:02012f000726a1
:020130000724a2
:020131000723a2
:020132000722a2
:020133000720a3
:02013400071fa3
:02013500071da4
:02013600071ca4
:02013700071aa5
:020138000719a5
:020139000718a5
:02013a000716a6
:02013b000715a6
:02013c000713a7
:02013d000712a7
:02013e000710a8
:02013f00070fa8
:02014000070da9
:02014100070ca9
:02014200070aaa
:020143000709aa
:020144000707ab
:020145000706ab
:020146000704ac
:020147000703ac
:020148000701ad
:020149000700ad
:02014a0006feaf
:02014b0006fdaf
:02014c0006fbb0
:02014d0006fab0
:02014e0006f8b1
:02014f0006f7b1
:0201500006f5b2
:0201510006f4b2
:0201520006f2b3
:0201530006f0b4
:0201540006efb4
:0201550006edb5
:0201560006ecb5
:0201570006eab6
:0201580006e9b6
:0201590006e7b7
:02015a0006e5b8
:02015b0006e4b8
:02015c0006e2b9
:02015d0006e1b9
:02015e0006dfba
:02015f0006ddbb
:0201600006dcbb
:0201610006dabc
:0201620006d9bc
:0201630006d7bd
:0201640006d5be
:0201650006d4be
:0201660006d2bf
:0201670006d0c0
:0201680006cfc0
:0201690006cdc1
:02016a0006cbc2
:02016b0006cac2
:02016c0006c8c3
:02016d0006c6c4
:02016e0006c5c4
:02016f0006c3c5
:0201700006c1c6
:0201710006c0c6
:0201720006bec7
:0201730006bcc8
:0201740006bbc8
:0201750006b9c9
:0201760006b7ca
:0201770006b6ca
:0201780006b4cb
:0201790006b2cc
:02017a0006b0cd
:02017b0006afcd
:02017c0006adce
:02017d0006abcf
:02017e0006a9d0
:02017f0006a8d0
:0201800006a6d1
:0201810006a4d2
:0201820006a3d2
:0201830006a1d3
:02018400069fd4
:02018500069dd5
:02018600069bd6
:02018700069ad6
:020188000698d7
:020189000696d8
:02018a000694d9
:02018b000693d9
:02018c000691da
:02018d00068fdb
:02018e00068ddc
:02018f00068bdd
:02019000068add
:020191000688de
:020192000686df
:020193000684e0
:020194000682e1
:020195000681e1
:02019600067fe2
:02019700067de3
:02019800067be4
:020199000679e5
:02019a000677e6
:02019b000675e7
:02019c000674e7
:02019d000672e8
:02019e000670e9
:02019f00066eea
:0201a000066ceb
:0201a100066aec
:0201a2000668ed
:0201a3000667ed
:0201a4000665ee
:0201a5000663ef
:0201a6000661f0
:0201a700065ff1
:0201a800065df2
:0201a900065bf3
:0201aa000659f4
:0201ab000657f5
:0201ac000655f6
:0201ad000654f6
:0201ae000652f7
:0201af000650f8
:0201b000064ef9
:0201b100064cfa
:0201b200064afb
:0201b3000648fc
:0201b4000646fd
:0201b5000644fe
:0201b6000642ff
:0201b700064000
:0201b800063e01
:0201b900063c02
:0201ba00063a03
:0201bb00063804
:0201bc00063605
:0201bd00063406
:0201be00063207
:0201bf00063008
:0201c000062e09
:0201c100062c0a
:0201c200062a0b
:0201c30006280c
:0201c40006260d
:0201c50006240e
:0201c60006220f
:0201c700062010
:0201c800061e11
:0201c900061c12
:0201ca00061a13
:0201cb00061814
:0201cc00061615
:0201cd00061416
:0201ce00061217
:0201cf00061018
:0201d000060e19
:0201d100060c1a
:0201d200060a1b
:0201d30006081c
:0201d40006061d
:0201d50006041e
:0201d60006021f
:0201d700060020
:0201d80005fd23
:0201d90005fb24
:0201da0005f925
:0201db0005f726
:0201dc0005f527
:0201dd0005f328
:0201de0005f129
:0201df0005ef2a
:0201e00005ed2b
:0201e10005eb2c
:0201e20005e92d
:0201e30005e62f
:0201e40005e430
:0201e50005e231
:0201e60005e032
:0201e70005de33
:0201e80005dc34
:0201e90005da35
:0201ea0005d737
:0201eb0005d538
:0201ec0005d339
:0201ed0005d13a
:0201ee0005cf3b
:0201ef0005cd3c
:0201f00005cb3d
:0201f10005c83f
:0201f20005c640
:0201f30005c441
:0201f40005c242
:0201f50005c043
:0201f60005bd45
:0201f70005bb46
:0201f80005b947
:0201f90005b748
:0201fa0005b549
:0201fb0005b34a
:0201fc0005b04c
:0201fd0005ae4d
:0201fe0005ac4e
:0201ff0005aa4f
:0202000005a750
:0202010005a551
:0202020005a352
:0202030005a153
:02020400059f54
:02020500059c56
:02020600059a57
:02020700059858
:02020800059659
:0202090005935b
:02020a0005915c
:02020b00058f5d
:02020c00058d5e
:02020d00058a60
:02020e00058861
:02020f00058662
:02021000058364
:02021100058165
:02021200057f66
:02021300057d67
:02021400057a69
:0202150005786a
:0202160005766b
:0202170005736d
:0202180005716e
:02021900056f6f
:02021a00056d70
:02021b00056a72
:02021c00056873
:02021d00056674
:02021e00056376
:02021f00056177
:02022000055f78
:02022100055c7a
:02022200055a7b
:0202230005587c
:0202240005557e
:0202250005537f
:02022600055180
:02022700054e82
:02022800054c83
:02022900054a84
:02022a00054786
:02022b00054587
:02022c00054388
:02022d0005408a
:02022e00053e8b
:02022f00053b8d
:0202300005398e
:0202310005378f
:02023200053491
:02023300053292
:02023400053093
:02023500052d95
:02023600052b96
:02023700052898
:02023800052699
:0202390005249a
:02023a0005219c
:02023b00051f9d
:02023c00051c9f
:02023d00051aa0
:02023e000517a2
:02023f000515a3
:020240000513a4
:020241000510a6
:02024200050ea7
:02024300050ba9
:020244000509aa
:020245000506ac
:020246000504ad
:020247000502ae
:0202480004ffb1
:0202490004fdb2
:02024a0004fab4
:02024b0004f8b5
:02024c0004f5b7
:02024d0004f3b8
:02024e0004f0ba
:02024f0004eebb
:0202500004ebbd
:0202510004e9be
:0202520004e6c0
:0202530004e4c1
:0202540004e1c3
:0202550004dfc4
:0202560004dcc6
:0202570004dac7
:0202580004d7c9
:0202590004d5ca
:02025a0004d2cc
:02025b0004d0cd
:02025c0004cdcf
:02025d0004cbd0
:02025e0004c8d2
:02025f0004c6d3
:0202600004c3d5
:0202610004c1d6
:0202620004bed8
:0202630004bcd9
:0202640004b9db
:0202650004b7dc
:0202660004b4de
:0202670004b2df
:0202680004afe1
:0202690004ade2
:02026a0004aae4
:02026b0004a7e6
:02026c0004a5e7
:02026d0004a2e9
:02026e0004a0ea
:02026f00049dec
:02027000049bed
:020271000498ef
:020272000496f0
:020273000493f2
:020274000490f4
:02027500048ef5
:02027600048bf7
:020277000489f8
:020278000486fa
:020279000483fc
:02027a000481fd
:02027b00047eff
:02027c00047c00
:02027d00047902
:02027e00047604
:02027f00047405
:02028000047107
:02028100046f08
:02028200046c0a
:0202830004690c
:0202840004670d
:0202850004640f
:02028600046210
:02028700045f12
:02028800045c14
:02028900045a15
:02028a00045717
:02028b00045419
:02028c0004521a
:02028d00044f1c
:02028e00044c1e
:02028f00044a1f
:02029000044721
:02029100044423
:02029200044224
:02029300043f26
:02029400043d27
:02029500043a29
:0202960004372b
:0202970004352c
:0202980004322e
:02029900042f30
:02029a00042c32
:02029b00042a33
:02029c00042735
:02029d00042437
:02029e00042238
:02029f00041f3a
:0202a000041c3c
:0202a100041a3d
:0202a20004173f
:0202a300041441
:0202a400041242
:0202a500040f44
:0202a600040c46
:0202a700040948
:0202a800040749
:0202a90004044b
:0202aa0004014d
:0202ab0003ff4f
:0202ac0003fc51
:0202ad0003f953
:0202ae0003f655
:0202af0003f456
:0202b00003f158
:0202b10003ee5a
:0202b20003eb5c
:0202b30003e95d
:0202b40003e65f
:0202b50003e361
:0202b60003e162
:0202b70003de64
:0202b80003db66
:0202b90003d868
:0202ba0003d669
:0202bb0003d36b
:0202bc0003d06d
:0202bd0003cd6f
:0202be0003ca71
:0202bf0003c872
:0202c00003c574
:0202c10003c276
:0202c20003bf78
:0202c30003bd79
:0202c40003ba7b
:0202c50003b77d
:0202c60003b47f
:0202c70003b280
:0202c80003af82
:0202c90003ac84
:0202ca0003a986
:0202cb0003a688
:0202cc0003a489
:0202cd0003a18b
:0202ce00039e8d
:0202cf00039b8f
:0202d000039891
:0202d100039692
:0202d200039394
:0202d300039096
:0202d400038d98
:0202d500038a9a
:0202d60003879c
:0202d70003859d
:0202d80003829f
:0202d900037fa1
:0202da00037ca3
:0202db000379a5
:0202dc000377a6
:0202dd000374a8
:0202de000371aa
:0202df00036eac
:0202e000036bae
:0202e1000368b0
:0202e2000366b1
:0202e3000363b3
:0202e4000360b5
:0202e500035db7
:0202e600035ab9
:0202e7000357bb
:0202e8000354bd
:0202e9000352be
:0202ea00034fc0
:0202eb00034cc2
:0202ec000349c4
:0202ed000346c6
:0202ee000343c8
:0202ef000340ca
:0202f000033ecb
:0202f100033bcd
:0202f2000338cf
:0202f3000335d1
:0202f4000332d3
:0202f500032fd5
:0202f600032cd7
:0202f7000329d9
:0202f8000327da
:0202f9000324dc
:0202fa000321de
:0202fb00031ee0
:0202fc00031be2
:0202fd000318e4
:0202fe000315e6
:0202ff000312e8
:02030000030fe9
:02030100030ceb
:02030200030aec
:020303000307ee
:020304000304f0
:020305000301f2
:0203060002fef5
:0203070002fbf7
:0203080002f8f9
:0203090002f5fb
:02030a0002f2fd
:02030b0002efff
:02030c0002ec01
:02030d0002e903
:02030e0002e704
:02030f0002e406
:0203100002e108
:0203110002de0a
:0203120002db0c
:0203130002d80e
:0203140002d510
:0203150002d212
:0203160002cf14
:0203170002cc16
:0203180002c918
:0203190002c61a
:02031a0002c31c
:02031b0002c01e
:02031c0002bd20
:02031d0002ba22
:02031e0002b823
:02031f0002b525
:0203200002b227
:0203210002af29
:0203220002ac2b
:0203230002a92d
:0203240002a62f
:0203250002a331
:0203260002a033
:02032700029d35
:02032800029a37
:02032900029739
:02032a0002943b
:02032b0002913d
:02032c00028e3f
:02032d00028b41
:02032e00028843
:02032f00028545
:02033000028247
:02033100027f49
:02033200027c4b
:0203330002794d
:0203340002764f
:02033500027351
:02033600027053
:02033700026d55
:02033800026a57
:02033900026759
:02033a0002645b
:02033b0002615d
:02033c00025e5f
:02033d00025b61
:02033e00025863
:02033f00025565
:02034000025267
:02034100024f69
:02034200024c6b
:0203430002496d
:0203440002466f
:02034500024371
:02034600024073
:02034700023d75
:02034800023a77
:02034900023779
:02034a0002347b
:02034b0002317d
:02034c00022e7f
:02034d00022b81
:02034e00022883
:02034f00022585
:02035000022287
:02035100021f89
:02035200021c8b
:0203530002198d
:0203540002168f
:02035500021391
:02035600021093
:02035700020d95
:02035800020a97
:02035900020799
:02035a0002049b
:02035b0002019d
:02035c0001fea0
:02035d0001fba2
:02035e0001f7a5
:02035f0001f4a7
:0203600001f1a9
:0203610001eeab
:0203620001ebad
:0203630001e8af
:0203640001e5b1
:0203650001e2b3
:0203660001dfb5
:0203670001dcb7
:0203680001d9b9
:0203690001d6bb
:02036a0001d3bd
:02036b0001d0bf
:02036c0001cdc1
:02036d0001cac3
:02036e0001c7c5
:02036f0001c4c7
:0203700001c1c9
:0203710001bdcc
:0203720001bace
:0203730001b7d0
:0203740001b4d2
:0203750001b1d4
:0203760001aed6
:0203770001abd8
:0203780001a8da
:0203790001a5dc
:02037a0001a2de
:02037b00019fe0
:02037c00019ce2
:02037d000199e4
:02037e000196e6
:02037f000192e9
:02038000018feb
:02038100018ced
:020382000189ef
:020383000186f1
:020384000183f3
:020385000180f5
:02038600017df7
:02038700017af9
:020388000177fb
:020389000174fd
:02038a000171ff
:02038b00016d02
:02038c00016a04
:02038d00016706
:02038e00016408
:02038f0001610a
:02039000015e0c
:02039100015b0e
:02039200015810
:02039300015512
:02039400015214
:02039500014e17
:02039600014b19
:0203970001481b
:0203980001451d
:0203990001421f
:02039a00013f21
:02039b00013c23
:02039c00013925
:02039d00013627
:02039e00013329
:02039f00012f2c
:0203a000012c2e
:0203a100012930
:0203a200012632
:0203a300012334
:0203a400012036
:0203a500011d38
:0203a600011a3a
:0203a70001173c
:0203a80001133f
:0203a900011041
:0203aa00010d43
:0203ab00010a45
:0203ac00010747
:0203ad00010449
:0203ae0001014b
:0203af0000fe4e
:0203b00000fb50
:0203b10000f753
:0203b20000f455
:0203b30000f157
:0203b40000ee59
:0203b50000eb5b
:0203b60000e85d
:0203b70000e55f
:0203b80000e261
:0203b90000df63
:0203ba0000db66
:0203bb0000d868
:0203bc0000d56a
:0203bd0000d26c
:0203be0000cf6e
:0203bf0000cc70
:0203c00000c972
:0203c10000c674
:0203c20000c277
:0203c30000bf79
:0203c40000bc7b
:0203c50000b97d
:0203c60000b67f
:0203c70000b381
:0203c80000b083
:0203c90000ac86
:0203ca0000a988
:0203cb0000a68a
:0203cc0000a38c
:0203cd0000a08e
:0203ce00009d90
:0203cf00009a92
:0203d000009794
:0203d100009397
:0203d200009099
:0203d300008d9b
:0203d400008a9d
:0203d50000879f
:0203d6000084a1
:0203d7000081a3
:0203d800007ea5
:0203d900007aa8
:0203da000077aa
:0203db000074ac
:0203dc000071ae
:0203dd00006eb0
:0203de00006bb2
:0203df000068b4
:0203e0000064b7
:0203e1000061b9
:0203e200005ebb
:0203e300005bbd
:0203e4000058bf
:0203e5000055c1
:0203e6000052c3
:0203e700004ec6
:0203e800004bc8
:0203e9000048ca
:0203ea000045cc
:0203eb000042ce
:0203ec00003fd0
:0203ed00003cd2
:0203ee000039d4
:0203ef000035d7
:0203f0000032d9
:0203f100002fdb
:0203f200002cdd
:0203f3000029df
:0203f4000026e1
:0203f5000023e3
:0203f600001fe6
:0203f700001ce8
:0203f8000019ea
:0203f9000016ec
:0203fa000013ee
:0203fb000010f0
:0203fc00000df2
:0203fd000009f5
:0203fe000006f7
:0203ff000003f9
:00000001FF
