:0200000007fff8
:0200010007fff7
:0200020007fff6
:0200030007fff5
:0200040007fff4
:0200050007fef4
:0200060007fef3
:0200070007fef2
:0200080007fef1
:0200090007fdf1
:02000a0007fdf0
:02000b0007fcf0
:02000c0007fcef
:02000d0007fbef
:02000e0007fbee
:02000f0007faee
:0200100007f9ee
:0200110007f9ed
:0200120007f8ed
:0200130007f7ed
:0200140007f6ed
:0200150007f5ed
:0200160007f5ec
:0200170007f4ec
:0200180007f3ec
:0200190007f1ed
:02001a0007f0ed
:02001b0007efed
:02001c0007eeed
:02001d0007eded
:02001e0007eced
:02001f0007eaee
:0200200007e9ee
:0200210007e7ef
:0200220007e6ef
:0200230007e5ef
:0200240007e3f0
:0200250007e1f1
:0200260007e0f1
:0200270007def2
:0200280007dcf3
:0200290007dbf3
:02002a0007d9f4
:02002b0007d7f5
:02002c0007d5f6
:02002d0007d3f7
:02002e0007d1f8
:02002f0007cff9
:0200300007cdfa
:0200310007cbfb
:0200320007c9fc
:0200330007c7fd
:0200340007c5fe
:0200350007c200
:0200360007c001
:0200370007be02
:0200380007bb04
:0200390007b905
:02003a0007b706
:02003b0007b408
:02003c0007b10a
:02003d0007af0b
:02003e0007ac0d
:02003f0007aa0e
:0200400007a710
:0200410007a412
:0200420007a114
:02004300079e16
:02004400079c17
:02004500079919
:0200460007961b
:0200470007931d
:0200480007901f
:02004900078d21
:02004a00078924
:02004b00078626
:02004c00078328
:02004d0007802a
:02004e00077d2c
:02004f0007792f
:02005000077631
:02005100077234
:02005200076f36
:02005300076b39
:0200540007683b
:0200550007643e
:02005600076140
:02005700075d43
:02005800075946
:02005900075648
:02005a0007524b
:02005b00074e4e
:02005c00074a51
:02005d00074654
:02005e00074257
:02005f00073e5a
:02006000073a5d
:02006100073660
:02006200073263
:02006300072e66
:02006400072a69
:0200650007266c
:0200660007226f
:02006700071d73
:02006800071976
:02006900071579
:02006a0007107d
:02006b00070c80
:02006c00070784
:02006d00070387
:02006e0006fe8c
:02006f0006fa8f
:0200700006f593
:0200710006f097
:0200720006ec9a
:0200730006e79e
:0200740006e2a2
:0200750006dda6
:0200760006d9a9
:0200770006d4ad
:0200780006cfb1
:0200790006cab5
:02007a0006c5b9
:02007b0006c0bd
:02007c0006bbc1
:02007d0006b6c5
:02007e0006b0ca
:02007f0006abce
:0200800006a6d2
:0200810006a1d6
:02008200069bdb
:020083000696df
:020084000691e3
:02008500068be8
:020086000686ec
:020087000681f0
:02008800067bf5
:020089000675fa
:02008a000670fe
:02008b00066a03
:02008c00066507
:02008d00065f0c
:02008e00065911
:02008f00065415
:02009000064e1a
:0200910006481f
:02009200064224
:02009300063c29
:0200940006362e
:02009500063033
:02009600062a38
:0200970006243d
:02009800061e42
:02009900061847
:02009a0006124c
:02009b00060c51
:02009c00060656
:02009d0006005b
:02009e0005f962
:02009f0005f367
:0200a00005ed6c
:0200a10005e672
:0200a20005e077
:0200a30005da7c
:0200a40005d382
:0200a50005cd87
:0200a60005c68d
:0200a70005c092
:0200a80005b998
:0200a90005b39d
:0200aa0005aca3
:0200ab0005a5a9
:0200ac00059fae
:0200ad000598b4
:0200ae000591ba
:0200af00058ac0
:0200b0000583c6
:0200b100057dcb
:0200b2000576d1
:0200b300056fd7
:0200b4000568dd
:0200b5000561e3
:0200b600055ae9
:0200b7000553ef
:0200b800054cf5
:0200b9000545fb
:0200ba00053e01
:0200bb00053707
:0200bc0005300d
:0200bd00052814
:0200be0005211a
:0200bf00051a20
:0200c000051326
:0200c100050b2d
:0200c200050433
:0200c30004fd3a
:0200c40004f541
:0200c50004ee47
:0200c60004e64e
:0200c70004df54
:0200c80004d75b
:0200c90004d061
:0200ca0004c868
:0200cb0004c16e
:0200cc0004b975
:0200cd0004b27b
:0200ce0004aa82
:0200cf0004a289
:0200d000049b8f
:0200d100049396
:0200d200048b9d
:0200d3000483a4
:0200d400047caa
:0200d5000474b1
:0200d600046cb8
:0200d7000464bf
:0200d800045cc6
:0200d9000454cd
:0200da00044cd4
:0200db000444db
:0200dc00043de1
:0200dd000435e8
:0200de00042cf0
:0200df000424f7
:0200e000041cfe
:0200e100041405
:0200e200040c0c
:0200e300040413
:0200e40003fc1b
:0200e50003f422
:0200e60003eb2a
:0200e70003e331
:0200e80003db38
:0200e90003d33f
:0200ea0003ca47
:0200eb0003c24e
:0200ec0003ba55
:0200ed0003b25c
:0200ee0003a964
:0200ef0003a16b
:0200f000039873
:0200f10003907a
:0200f200038782
:0200f300037f89
:0200f400037790
:0200f500036e98
:0200f60003669f
:0200f700035da7
:0200f8000354af
:0200f900034cb6
:0200fa000343be
:0200fb00033bc5
:0200fc000332cd
:0200fd000329d5
:0200fe000321dc
:0200ff000318e4
:02010000030feb
:020101000307f2
:0201020002fefb
:0201030002f503
:0201040002ec0b
:0201050002e412
:0201060002db1a
:0201070002d222
:0201080002c92a
:0201090002c032
:02010a0002b839
:02010b0002af41
:02010c0002a649
:02010d00029d51
:02010e00029459
:02010f00028b61
:02011000028269
:02011100027971
:02011200027079
:02011300026781
:02011400025e89
:02011500025591
:02011600024c99
:020117000243a1
:02011800023aa9
:020119000231b1
:02011a000228b9
:02011b00021fc1
:02011c000216c9
:02011d00020dd1
:02011e000204d9
:02011f0001fbe2
:0201200001f1eb
:0201210001e8f3
:0201220001dffb
:0201230001d603
:0201240001cd0b
:0201250001c413
:0201260001ba1c
:0201270001b124
:0201280001a82c
:02012900019f34
:02012a0001963c
:02012b00018c45
:02012c0001834d
:02012d00017a55
:02012e0001715d
:02012f00016766
:02013000015e6e
:02013100015576
:02013200014b7f
:02013300014287
:0201340001398f
:02013500012f98
:020136000126a0
:02013700011da8
:020138000113b1
:02013900010ab9
:02013a000101c1
:02013b0000f7cb
:02013c0000eed3
:02013d0000e5db
:02013e0000dbe4
:02013f0000d2ec
:0201400000c9f4
:0201410000bffd
:0201420000b605
:0201430000ac0e
:0201440000a316
:02014500009a1e
:02014600009027
:0201470000872f
:02014800007e37
:02014900007440
:02014a00006b48
:02014b00006151
:02014c00005859
:02014d00004e62
:02014e0000456a
:02014f00003c72
:0201500000327b
:02015100002983
:02015200001f8c
:02015300001694
:02015400000d9c
:020155000003a5
:020156000ffa9e
:020157000ff0a7
:020158000fe7af
:020159000fddb8
:02015a000fd4c0
:02015b000fcbc8
:02015c000fc1d1
:02015d000fb8d9
:02015e000faee2
:02015f000fa5ea
:020160000f9cf2
:020161000f92fb
:020162000f8903
:020163000f7f0c
:020164000f7614
:020165000f6d1c
:020166000f6325
:020167000f5a2d
:020168000f5036
:020169000f473e
:02016a000f3e46
:02016b000f344f
:02016c000f2b57
:02016d000f2160
:02016e000f1868
:02016f000f0f70
:020170000f0579
:020171000efc82
:020172000ef38a
:020173000ee993
:020174000ee09b
:020175000ed7a3
:020176000ecdac
:020177000ec4b4
:020178000ebbbc
:020179000eb2c4
:02017a000ea8cd
:02017b000e9fd5
:02017c000e96dd
:02017d000e8ce6
:02017e000e83ee
:02017f000e7af6
:020180000e71fe
:020181000e6707
:020182000e5e0f
:020183000e5517
:020184000e4c1f
:020185000e4327
:020186000e3930
:020187000e3038
:020188000e2740
:020189000e1e48
:02018a000e1550
:02018b000e0c58
:02018c000e0261
:02018d000df96a
:02018e000df072
:02018f000de77a
:020190000dde82
:020191000dd58a
:020192000dcc92
:020193000dc39a
:020194000dbaa2
:020195000db1aa
:020196000da8b2
:020197000d9fba
:020198000d96c2
:020199000d8dca
:02019a000d84d2
:02019b000d7bda
:02019c000d72e2
:02019d000d69ea
:02019e000d60f2
:02019f000d57fa
:0201a0000d4e02
:0201a1000d4609
:0201a2000d3d11
:0201a3000d3419
:0201a4000d2b21
:0201a5000d2229
:0201a6000d1931
:0201a7000d1138
:0201a8000d0840
:0201a9000cff49
:0201aa000cf651
:0201ab000cee58
:0201ac000ce560
:0201ad000cdc68
:0201ae000cd46f
:0201af000ccb77
:0201b0000cc27f
:0201b1000cba86
:0201b2000cb18e
:0201b3000ca995
:0201b4000ca09d
:0201b5000c98a4
:0201b6000c8fac
:0201b7000c87b3
:0201b8000c7ebb
:0201b9000c76c2
:0201ba000c6dca
:0201bb000c65d1
:0201bc000c5cd9
:0201bd000c54e0
:0201be000c4ce7
:0201bf000c43ef
:0201c0000c3bf6
:0201c1000c33fd
:0201c2000c2a05
:0201c3000c220c
:0201c4000c1a13
:0201c5000c121a
:0201c6000c0a21
:0201c7000c0129
:0201c8000bf931
:0201c9000bf138
:0201ca000be93f
:0201cb000be146
:0201cc000bd94d
:0201cd000bd154
:0201ce000bc95b
:0201cf000bc162
:0201d0000bb969
:0201d1000bb170
:0201d2000ba977
:0201d3000ba17e
:0201d4000b9985
:0201d5000b918c
:0201d6000b8a92
:0201d7000b8299
:0201d8000b7aa0
:0201d9000b72a7
:0201da000b6aae
:0201db000b63b4
:0201dc000b5bbb
:0201dd000b53c2
:0201de000b4cc8
:0201df000b44cf
:0201e0000b3dd5
:0201e1000b35dc
:0201e2000b2ee2
:0201e3000b26e9
:0201e4000b1fef
:0201e5000b17f6
:0201e6000b10fc
:0201e7000b0803
:0201e8000b0109
:0201e9000afa10
:0201ea000af217
:0201eb000aeb1d
:0201ec000ae423
:0201ed000adc2a
:0201ee000ad530
:0201ef000ace36
:0201f0000ac73c
:0201f1000ac042
:0201f2000ab948
:0201f3000ab24e
:0201f4000aab54
:0201f5000aa45a
:0201f6000a9d60
:0201f7000a9666
:0201f8000a8f6c
:0201f9000a8872
:0201fa000a8178
:0201fb000a7a7e
:0201fc000a7384
:0201fd000a6d89
:0201fe000a668f
:0201ff000a5f95
:020200000a5999
:020201000a529f
:020202000a4ba5
:020203000a45aa
:020204000a3eb0
:020205000a38b5
:020206000a31bb
:020207000a2bc0
:020208000a24c6
:020209000a1ecb
:02020a000a17d1
:02020b000a11d6
:02020c000a0bdb
:02020d000a05e0
:02020e0009fee7
:02020f0009f8ec
:0202100009f2f1
:0202110009ecf6
:0202120009e6fb
:0202130009e000
:0202140009da05
:0202150009d40a
:0202160009ce0f
:0202170009c814
:0202180009c219
:0202190009bc1e
:02021a0009b623
:02021b0009b028
:02021c0009ab2c
:02021d0009a531
:02021e00099f36
:02021f0009993b
:0202200009943f
:02022100098e44
:02022200098948
:0202230009834d
:02022400097e51
:02022500097856
:0202260009735a
:02022700096d5f
:02022800096863
:02022900096367
:02022a00095d6c
:02022b00095870
:02022c00095374
:02022d00094e78
:02022e0009497c
:02022f00094480
:02023000093f84
:02023100093a88
:0202320009358c
:02023300093090
:02023400092b94
:02023500092698
:0202360009219c
:02023700091ca0
:020238000917a4
:020239000913a7
:02023a00090eab
:02023b000909af
:02023c000905b2
:02023d000900b6
:02023e0008fcba
:02023f0008f7be
:0202400008f3c1
:0202410008eec5
:0202420008eac8
:0202430008e6cb
:0202440008e1cf
:0202450008ddd2
:0202460008d9d5
:0202470008d5d8
:0202480008d0dc
:0202490008ccdf
:02024a0008c8e2
:02024b0008c4e5
:02024c0008c0e8
:02024d0008bceb
:02024e0008b8ee
:02024f0008b4f1
:0202500008b1f3
:0202510008adf6
:0202520008a9f9
:0202530008a5fc
:0202540008a2fe
:02025500089e01
:02025600089a04
:02025700089706
:02025800089309
:0202590008900b
:02025a00088c0e
:02025b00088910
:02025c00088612
:02025d00088215
:02025e00087f17
:02025f00087c19
:0202600008791b
:0202610008761d
:02026200087220
:02026300086f22
:02026400086c24
:02026500086926
:02026600086628
:0202670008632a
:0202680008612b
:02026900085e2d
:02026a00085b2f
:02026b00085831
:02026c00085632
:02026d00085334
:02026e00085036
:02026f00084e37
:02027000084b39
:0202710008493a
:0202720008463c
:0202730008443d
:0202740008413f
:02027500083f40
:02027600083d41
:02027700083b42
:02027800083844
:02027900083645
:02027a00083446
:02027b00083247
:02027c00083048
:02027d00082e49
:02027e00082c4a
:02027f00082a4b
:0202800008284c
:0202810008274c
:0202820008254d
:0202830008234e
:0202840008214f
:0202850008204f
:02028600081e50
:02028700081d50
:02028800081b51
:02028900081a51
:02028a00081852
:02028b00081752
:02028c00081553
:02028d00081453
:02028e00081353
:02028f00081253
:02029000081054
:02029100080f54
:02029200080e54
:02029300080d54
:02029400080c54
:02029500080b54
:02029600080a54
:02029700080954
:02029800080953
:02029900080853
:02029a00080753
:02029b00080653
:02029c00080652
:02029d00080552
:02029e00080452
:02029f00080451
:0202a000080351
:0202a100080350
:0202a20008034f
:0202a30008024f
:0202a40008024e
:0202a50008024d
:0202a60008014d
:0202a70008014c
:0202a80008014b
:0202a90008014a
:0202aa00080149
:0202ab00080148
:0202ac00080147
:0202ad00080146
:0202ae00080145
:0202af00080144
:0202b000080242
:0202b100080241
:0202b200080240
:0202b30008033e
:0202b40008033d
:0202b50008033c
:0202b60008043a
:0202b700080439
:0202b800080537
:0202b900080536
:0202ba00080634
:0202bb00080732
:0202bc00080830
:0202bd0008082f
:0202be0008092d
:0202bf00080a2b
:0202c000080b29
:0202c100080c27
:0202c200080d25
:0202c300080e23
:0202c400080f21
:0202c50008101f
:0202c60008111d
:0202c70008121b
:0202c800081418
:0202c900081516
:0202ca00081614
:0202cb00081811
:0202cc0008190f
:0202cd00081a0d
:0202ce00081c0a
:0202cf00081e07
:0202d000081f05
:0202d100082102
:0202d200082200
:0202d3000824fd
:0202d4000826fa
:0202d5000828f7
:0202d600082af4
:0202d700082bf2
:0202d800082def
:0202d900082fec
:0202da000831e9
:0202db000833e6
:0202dc000836e2
:0202dd000838df
:0202de00083adc
:0202df00083cd9
:0202e000083ed6
:0202e1000841d2
:0202e2000843cf
:0202e3000845cc
:0202e4000848c8
:0202e500084ac5
:0202e600084dc1
:0202e700084fbe
:0202e8000852ba
:0202e9000855b6
:0202ea000857b3
:0202eb00085aaf
:0202ec00085dab
:0202ed000860a7
:0202ee000862a4
:0202ef000865a0
:0202f00008689c
:0202f100086b98
:0202f200086e94
:0202f300087190
:0202f40008748c
:0202f500087887
:0202f600087b83
:0202f700087e7f
:0202f80008817b
:0202f900088576
:0202fa00088872
:0202fb00088b6e
:0202fc00088f69
:0202fd00089265
:0202fe00089660
:0202ff0008995c
:02030000089d56
:0203010008a052
:0203020008a44d
:0203030008a848
:0203040008ac43
:0203050008af3f
:0203060008b33a
:0203070008b735
:0203080008bb30
:0203090008bf2b
:02030a0008c326
:02030b0008c721
:02030c0008cb1c
:02030d0008cf17
:02030e0008d312
:02030f0008d70d
:0203100008dc07
:0203110008e002
:0203120008e4fd
:0203130008e8f8
:0203140008edf2
:0203150008f1ed
:0203160008f6e7
:0203170008fae2
:0203180008ffdc
:020319000903d6
:02031a000908d0
:02031b00090ccb
:02031c000911c5
:02031d000916bf
:02031e00091bb9
:02031f00091fb4
:020320000924ae
:020321000929a8
:02032200092ea2
:0203230009339c
:02032400093896
:02032500093d90
:0203260009428a
:02032700094784
:02032800094c7e
:02032900095178
:02032a00095771
:02032b00095c6b
:02032c00096165
:02032d0009665f
:02032e00096c58
:02032f00097152
:0203300009764c
:02033100097c45
:0203320009813f
:02033300098738
:02033400098c32
:0203350009922b
:02033600099824
:02033700099d1e
:0203380009a317
:0203390009a910
:02033a0009ae0a
:02033b0009b403
:02033c0009bafc
:02033d0009c0f5
:02033e0009c6ee
:02033f0009cce7
:0203400009d2e0
:0203410009d8d9
:0203420009ded2
:0203430009e4cb
:0203440009eac4
:0203450009f0bd
:0203460009f6b6
:0203470009fcaf
:020348000a03a6
:020349000a099f
:02034a000a0f98
:02034b000a1591
:02034c000a1c89
:02034d000a2282
:02034e000a297a
:02034f000a2f73
:020350000a356c
:020351000a3c64
:020352000a435c
:020353000a4955
:020354000a504d
:020355000a5646
:020356000a5d3e
:020357000a6436
:020358000a6a2f
:020359000a7127
:02035a000a781f
:02035b000a7f17
:02035c000a860f
:02035d000a8d07
:02035e000a9300
:02035f000a9af8
:020360000aa1f0
:020361000aa8e8
:020362000aafe0
:020363000ab6d8
:020364000abdd0
:020365000ac5c7
:020366000accbf
:020367000ad3b7
:020368000adaaf
:020369000ae1a7
:02036a000ae99e
:02036b000af096
:02036c000af78e
:02036d000afe86
:02036e000b067c
:02036f000b0d74
:020370000b156b
:020371000b1c63
:020372000b245a
:020373000b2b52
:020374000b3349
:020375000b3a41
:020376000b4238
:020377000b4930
:020378000b5127
:020379000b591e
:02037a000b6016
:02037b000b680d
:02037c000b7004
:02037d000b77fc
:02037e000b7ff3
:02037f000b87ea
:020380000b8fe1
:020381000b97d8
:020382000b9ed0
:020383000ba6c7
:020384000baebe
:020385000bb6b5
:020386000bbeac
:020387000bc6a3
:020388000bce9a
:020389000bd691
:02038a000bde88
:02038b000be67f
:02038c000bee76
:02038d000bf76c
:02038e000bff63
:02038f000c0759
:020390000c0f50
:020391000c1747
:020392000c1f3e
:020393000c2834
:020394000c302b
:020395000c3822
:020396000c4118
:020397000c490f
:020398000c5106
:020399000c5afc
:02039a000c62f3
:02039b000c6aea
:02039c000c73e0
:02039d000c7bd7
:02039e000c84cd
:02039f000c8cc4
:0203a0000c95ba
:0203a1000c9db1
:0203a2000ca6a7
:0203a3000cae9e
:0203a4000cb794
:0203a5000cc08a
:0203a6000cc881
:0203a7000cd177
:0203a8000cd96e
:0203a9000ce264
:0203aa000ceb5a
:0203ab000cf450
:0203ac000cfc47
:0203ad000d053c
:0203ae000d0e32
:0203af000d1728
:0203b0000d1f1f
:0203b1000d2815
:0203b2000d310b
:0203b3000d3a01
:0203b4000d43f7
:0203b5000d4bee
:0203b6000d54e4
:0203b7000d5dda
:0203b8000d66d0
:0203b9000d6fc6
:0203ba000d78bc
:0203bb000d81b2
:0203bc000d8aa8
:0203bd000d939e
:0203be000d9c94
:0203bf000da58a
:0203c0000dae80
:0203c1000db776
:0203c2000dc06c
:0203c3000dc962
:0203c4000dd258
:0203c5000ddb4e
:0203c6000de444
:0203c7000ded3a
:0203c8000df630
:0203c9000dff26
:0203ca000e091a
:0203cb000e1210
:0203cc000e1b06
:0203cd000e24fc
:0203ce000e2df2
:0203cf000e36e8
:0203d0000e3fde
:0203d1000e49d3
:0203d2000e52c9
:0203d3000e5bbf
:0203d4000e64b5
:0203d5000e6eaa
:0203d6000e77a0
:0203d7000e8096
:0203d8000e898c
:0203d9000e9381
:0203da000e9c77
:0203db000ea56d
:0203dc000eae63
:0203dd000eb858
:0203de000ec14e
:0203df000eca44
:0203e0000ed439
:0203e1000edd2f
:0203e2000ee625
:0203e3000ef01a
:0203e4000ef910
:0203e5000f0205
:0203e6000f0cfa
:0203e7000f15f0
:0203e8000f1ee6
:0203e9000f28db
:0203ea000f31d1
:0203eb000f3ac7
:0203ec000f44bc
:0203ed000f4db2
:0203ee000f57a7
:0203ef000f609d
:0203f0000f6993
:0203f1000f7388
:0203f2000f7c7e
:0203f3000f8673
:0203f4000f8f69
:0203f5000f985f
:0203f6000fa254
:0203f7000fab4a
:0203f8000fb53f
:0203f9000fbe35
:0203fa000fc72b
:0203fb000fd120
:0203fc000fda16
:0203fd000fe40b
:0203fe000fed01
:0203ff000ff7f6
:00000001FF
