:020000000000fe
:020001000006f7
:02000200000def
:020003000013e8
:020004000019e1
:02000500001fda
:020006000026d2
:02000700002ccb
:020008000032c4
:020009000039bc
:02000a00003fb5
:02000b000045ae
:02000c00004ba7
:02000d0000529f
:02000e00005898
:02000f00005e91
:0200100000648a
:02001100006b82
:0200120000717b
:02001300007774
:02001400007e6c
:02001500008465
:02001600008a5e
:02001700009057
:0200180000974f
:02001900009d48
:02001a0000a341
:02001b0000a93a
:02001c0000b032
:02001d0000b62b
:02001e0000bc24
:02001f0000c21d
:0200200000c915
:0200210000cf0e
:0200220000d507
:0200230000db00
:0200240000e2f8
:0200250000e8f1
:0200260000eeea
:0200270000f4e3
:0200280000fbdb
:020029000101d3
:02002a000107cc
:02002b00010dc5
:02002c000113be
:02002d00011ab6
:02002e000120af
:02002f000126a8
:02003000012ca1
:02003100013399
:02003200013992
:02003300013f8b
:02003400014584
:02003500014b7d
:02003600015275
:0200370001586e
:02003800015e67
:02003900016460
:02003a00016a59
:02003b00017151
:02003c0001774a
:02003d00017d43
:02003e0001833c
:02003f00018935
:02004000018f2e
:02004100019626
:02004200019c1f
:0200430001a218
:0200440001a811
:0200450001ae0a
:0200460001b403
:0200470001bafc
:0200480001c1f4
:0200490001c7ed
:02004a0001cde6
:02004b0001d3df
:02004c0001d9d8
:02004d0001dfd1
:02004e0001e5ca
:02004f0001ebc3
:0200500001f1bc
:0200510001f7b5
:0200520001fead
:020053000204a5
:02005400020a9e
:02005500021097
:02005600021690
:02005700021c89
:02005800022282
:0200590002287b
:02005a00022e74
:02005b0002346d
:02005c00023a66
:02005d0002405f
:02005e00024658
:02005f00024c51
:0200600002524a
:02006100025843
:02006200025e3c
:02006300026435
:02006400026a2e
:02006500027027
:02006600027620
:02006700027c19
:02006800028212
:0200690002880b
:02006a00028e04
:02006b000294fd
:02006c00029af6
:02006d0002a0ef
:02006e0002a6e8
:02006f0002ace1
:0200700002b2da
:0200710002b8d3
:0200720002bdcd
:0200730002c3c6
:0200740002c9bf
:0200750002cfb8
:0200760002d5b1
:0200770002dbaa
:0200780002e1a3
:0200790002e79c
:02007a0002ec96
:02007b0002f28f
:02007c0002f888
:02007d0002fe81
:02007e00030479
:02007f00030a72
:02008000030f6c
:02008100031565
:02008200031b5e
:02008300032157
:02008400032750
:02008500032c4a
:02008600033243
:0200870003383c
:02008800033e35
:0200890003432f
:02008a00034928
:02008b00034f21
:02008c0003541b
:02008d00035a14
:02008e0003600d
:02008f00036606
:02009000036b00
:020091000371f9
:020092000377f2
:02009300037cec
:020094000382e5
:020095000387df
:02009600038dd8
:020097000393d1
:020098000398cb
:02009900039ec4
:02009a0003a4bd
:02009b0003a9b7
:02009c0003afb0
:02009d0003b4aa
:02009e0003baa3
:02009f0003bf9d
:0200a00003c596
:0200a10003ca90
:0200a20003d089
:0200a30003d682
:0200a40003db7c
:0200a50003e175
:0200a60003e66f
:0200a70003eb69
:0200a80003f162
:0200a90003f65c
:0200aa0003fc55
:0200ab0004014e
:0200ac00040747
:0200ad00040c41
:0200ae0004123a
:0200af00041734
:0200b000041c2e
:0200b100042227
:0200b200042721
:0200b300042c1b
:0200b400043214
:0200b50004370e
:0200b600043d07
:0200b700044201
:0200b8000447fb
:0200b900044cf5
:0200ba000452ee
:0200bb000457e8
:0200bc00045ce2
:0200bd000462db
:0200be000467d5
:0200bf00046ccf
:0200c0000471c9
:0200c1000476c3
:0200c200047cbc
:0200c3000481b6
:0200c4000486b0
:0200c500048baa
:0200c6000490a4
:0200c70004969d
:0200c800049b97
:0200c90004a091
:0200ca0004a58b
:0200cb0004aa85
:0200cc0004af7f
:0200cd0004b479
:0200ce0004b973
:0200cf0004be6d
:0200d00004c367
:0200d10004c861
:0200d20004cd5b
:0200d30004d255
:0200d40004d74f
:0200d50004dc49
:0200d60004e143
:0200d70004e63d
:0200d80004eb37
:0200d90004f031
:0200da0004f52b
:0200db0004fa25
:0200dc0004ff1f
:0200dd00050418
:0200de00050912
:0200df00050e0c
:0200e000051306
:0200e100051701
:0200e200051cfb
:0200e3000521f5
:0200e4000526ef
:0200e500052be9
:0200e6000530e3
:0200e7000534de
:0200e8000539d8
:0200e900053ed2
:0200ea000543cc
:0200eb000547c7
:0200ec00054cc1
:0200ed000551bb
:0200ee000555b6
:0200ef00055ab0
:0200f000055faa
:0200f1000563a5
:0200f20005689f
:0200f300056d99
:0200f400057194
:0200f50005768e
:0200f600057a89
:0200f700057f83
:0200f80005837e
:0200f900058878
:0200fa00058d72
:0200fb0005916d
:0200fc00059667
:0200fd00059a62
:0200fe00059f5c
:0200ff0005a357
:0201000005a751
:0201010005ac4b
:0201020005b046
:0201030005b540
:0201040005b93b
:0201050005bd36
:0201060005c230
:0201070005c62b
:0201080005cb25
:0201090005cf20
:02010a0005d31b
:02010b0005d716
:02010c0005dc10
:02010d0005e00b
:02010e0005e406
:02010f0005e900
:0201100005edfb
:0201110005f1f6
:0201120005f5f1
:0201130005f9ec
:0201140005fde7
:020115000602e0
:020116000606db
:02011700060ad6
:02011800060ed1
:020119000612cc
:02011a000616c7
:02011b00061ac2
:02011c00061ebd
:02011d000622b8
:02011e000626b3
:02011f00062aae
:02012000062ea9
:020121000632a4
:0201220006369f
:02012300063a9a
:02012400063e95
:02012500064290
:0201260006468b
:02012700064a86
:02012800064e81
:0201290006527c
:02012a00065578
:02012b00065973
:02012c00065d6e
:02012d00066169
:02012e00066564
:02012f00066860
:02013000066c5b
:02013100067056
:02013200067451
:0201330006774d
:02013400067b48
:02013500067f43
:0201360006823f
:0201370006863a
:02013800068a35
:02013900068d31
:02013a0006912c
:02013b00069428
:02013c00069823
:02013d00069b1f
:02013e00069f1a
:02013f0006a315
:0201400006a611
:0201410006a90d
:0201420006ad08
:0201430006b004
:0201440006b4ff
:0201450006b7fb
:0201460006bbf6
:0201470006bef2
:0201480006c1ee
:0201490006c5e9
:02014a0006c8e5
:02014b0006cbe1
:02014c0006cfdc
:02014d0006d2d8
:02014e0006d5d4
:02014f0006d9cf
:0201500006dccb
:0201510006dfc7
:0201520006e2c3
:0201530006e5bf
:0201540006e9ba
:0201550006ecb6
:0201560006efb2
:0201570006f2ae
:0201580006f5aa
:0201590006f8a6
:02015a0006fba2
:02015b0006fe9e
:02015c00070199
:02015d00070495
:02015e00070791
:02015f00070a8d
:02016000070d89
:02016100071085
:02016200071381
:0201630007167d
:02016400071979
:02016500071c75
:02016600071f71
:0201670007226d
:0201680007246a
:02016900072766
:02016a00072a62
:02016b00072d5e
:02016c0007305a
:02016d00073257
:02016e00073553
:02016f0007384f
:02017000073a4c
:02017100073d48
:02017200074044
:02017300074241
:0201740007453d
:02017500074839
:02017600074a36
:02017700074d32
:02017800074f2f
:0201790007522b
:02017a00075428
:02017b00075724
:02017c00075921
:02017d00075c1d
:02017e00075e1a
:02017f00076116
:02018000076313
:0201810007660f
:0201820007680c
:02018300076a09
:02018400076d05
:02018500076f02
:020186000771ff
:020187000774fb
:020188000776f8
:020189000778f5
:02018a00077af2
:02018b00077dee
:02018c00077feb
:02018d000781e8
:02018e000783e5
:02018f000785e2
:020190000787df
:020191000789dc
:02019200078cd8
:02019300078ed5
:020194000790d2
:020195000792cf
:020196000794cc
:020197000796c9
:020198000798c6
:02019900079ac3
:02019a00079cc0
:02019b00079ebd
:02019c00079fbb
:02019d0007a1b8
:02019e0007a3b5
:02019f0007a5b2
:0201a00007a7af
:0201a10007a9ac
:0201a20007aaaa
:0201a30007aca7
:0201a40007aea4
:0201a50007b0a1
:0201a60007b19f
:0201a70007b39c
:0201a80007b599
:0201a90007b796
:0201aa0007b894
:0201ab0007ba91
:0201ac0007bb8f
:0201ad0007bd8c
:0201ae0007bf89
:0201af0007c087
:0201b00007c284
:0201b10007c382
:0201b20007c57f
:0201b30007c67d
:0201b40007c87a
:0201b50007c978
:0201b60007ca76
:0201b70007cc73
:0201b80007cd71
:0201b90007cf6e
:0201ba0007d06c
:0201bb0007d16a
:0201bc0007d367
:0201bd0007d465
:0201be0007d563
:0201bf0007d661
:0201c00007d85e
:0201c10007d95c
:0201c20007da5a
:0201c30007db58
:0201c40007dc56
:0201c50007de53
:0201c60007df51
:0201c70007e04f
:0201c80007e14d
:0201c90007e24b
:0201ca0007e349
:0201cb0007e447
:0201cc0007e545
:0201cd0007e643
:0201ce0007e741
:0201cf0007e83f
:0201d00007e93d
:0201d10007ea3b
:0201d20007eb39
:0201d30007ec37
:0201d40007ec36
:0201d50007ed34
:0201d60007ee32
:0201d70007ef30
:0201d80007f02e
:0201d90007f02d
:0201da0007f12b
:0201db0007f229
:0201dc0007f327
:0201dd0007f326
:0201de0007f424
:0201df0007f522
:0201e00007f521
:0201e10007f61f
:0201e20007f61e
:0201e30007f71c
:0201e40007f71b
:0201e50007f819
:0201e60007f818
:0201e70007f916
:0201e80007f915
:0201e90007fa13
:0201ea0007fa12
:0201eb0007fb10
:0201ec0007fb0f
:0201ed0007fc0d
:0201ee0007fc0c
:0201ef0007fc0b
:0201f00007fd09
:0201f10007fd08
:0201f20007fd07
:0201f30007fd06
:0201f40007fe04
:0201f50007fe03
:0201f60007fe02
:0201f70007fe01
:0201f80007fe00
:0201f90007fffe
:0201fa0007fffd
:0201fb0007fffc
:0201fc0007fffb
:0201fd0007fffa
:0201fe0007fff9
:0201ff0007fff8
:0202000007fff6
:0202010007fff5
:0202020007fff4
:0202030007fff3
:0202040007fff2
:0202050007fff1
:0202060007fff0
:0202070007ffef
:0202080007feef
:0202090007feee
:02020a0007feed
:02020b0007feec
:02020c0007feeb
:02020d0007fdeb
:02020e0007fdea
:02020f0007fde9
:0202100007fde8
:0202110007fce8
:0202120007fce7
:0202130007fce6
:0202140007fbe6
:0202150007fbe5
:0202160007fae5
:0202170007fae4
:0202180007f9e4
:0202190007f9e3
:02021a0007f8e3
:02021b0007f8e2
:02021c0007f7e2
:02021d0007f7e1
:02021e0007f6e1
:02021f0007f6e0
:0202200007f5e0
:0202210007f5df
:0202220007f4df
:0202230007f3df
:0202240007f3de
:0202250007f2de
:0202260007f1de
:0202270007f0de
:0202280007f0dd
:0202290007efdd
:02022a0007eedd
:02022b0007eddd
:02022c0007ecdd
:02022d0007ecdc
:02022e0007ebdc
:02022f0007eadc
:0202300007e9dc
:0202310007e8dc
:0202320007e7dc
:0202330007e6dc
:0202340007e5dc
:0202350007e4dc
:0202360007e3dc
:0202370007e2dc
:0202380007e1dc
:0202390007e0dc
:02023a0007dfdc
:02023b0007dedc
:02023c0007dcdd
:02023d0007dbdd
:02023e0007dadd
:02023f0007d9dd
:0202400007d8dd
:0202410007d6de
:0202420007d5de
:0202430007d4de
:0202440007d3de
:0202450007d1df
:0202460007d0df
:0202470007cfdf
:0202480007cde0
:0202490007cce0
:02024a0007cae1
:02024b0007c9e1
:02024c0007c8e1
:02024d0007c6e2
:02024e0007c5e2
:02024f0007c3e3
:0202500007c2e3
:0202510007c0e4
:0202520007bfe4
:0202530007bde5
:0202540007bbe6
:0202550007bae6
:0202560007b8e7
:0202570007b7e7
:0202580007b5e8
:0202590007b3e9
:02025a0007b1ea
:02025b0007b0ea
:02025c0007aeeb
:02025d0007acec
:02025e0007aaed
:02025f0007a9ed
:0202600007a7ee
:0202610007a5ef
:0202620007a3f0
:0202630007a1f1
:02026400079ff2
:02026500079ef2
:02026600079cf3
:02026700079af4
:020268000798f5
:020269000796f6
:02026a000794f7
:02026b000792f8
:02026c000790f9
:02026d00078efa
:02026e00078cfb
:02026f000789fd
:020270000787fe
:020271000785ff
:02027200078300
:02027300078101
:02027400077f02
:02027500077d03
:02027600077a05
:02027700077806
:02027800077607
:02027900077408
:02027a0007710a
:02027b00076f0b
:02027c00076d0c
:02027d00076a0e
:02027e0007680f
:02027f00076610
:02028000076312
:02028100076113
:02028200075e15
:02028300075c16
:02028400075918
:02028500075719
:0202860007541b
:0202870007521c
:02028800074f1e
:02028900074d1f
:02028a00074a21
:02028b00074822
:02028c00074524
:02028d00074226
:02028e00074027
:02028f00073d29
:02029000073a2b
:0202910007382c
:0202920007352e
:02029300073230
:02029400073031
:02029500072d33
:02029600072a35
:02029700072737
:02029800072439
:0202990007223a
:02029a00071f3c
:02029b00071c3e
:02029c00071940
:02029d00071642
:02029e00071344
:02029f00071046
:0202a000070d48
:0202a100070a4a
:0202a20007074c
:0202a30007044e
:0202a400070150
:0202a50006fe53
:0202a60006fb55
:0202a70006f857
:0202a80006f559
:0202a90006f25b
:0202aa0006ef5d
:0202ab0006ec5f
:0202ac0006e961
:0202ad0006e564
:0202ae0006e266
:0202af0006df68
:0202b00006dc6a
:0202b10006d96c
:0202b20006d56f
:0202b30006d271
:0202b40006cf73
:0202b50006cb76
:0202b60006c878
:0202b70006c57a
:0202b80006c17d
:0202b90006be7f
:0202ba0006bb81
:0202bb0006b784
:0202bc0006b486
:0202bd0006b089
:0202be0006ad8b
:0202bf0006a98e
:0202c00006a690
:0202c10006a392
:0202c200069f95
:0202c300069b98
:0202c40006989a
:0202c50006949d
:0202c60006919f
:0202c700068da2
:0202c800068aa4
:0202c9000686a7
:0202ca000682aa
:0202cb00067fac
:0202cc00067baf
:0202cd000677b2
:0202ce000674b4
:0202cf000670b7
:0202d000066cba
:0202d1000668bd
:0202d2000665bf
:0202d3000661c2
:0202d400065dc5
:0202d5000659c8
:0202d6000655cb
:0202d7000652cd
:0202d800064ed0
:0202d900064ad3
:0202da000646d6
:0202db000642d9
:0202dc00063edc
:0202dd00063adf
:0202de000636e2
:0202df000632e5
:0202e000062ee8
:0202e100062aeb
:0202e2000626ee
:0202e3000622f1
:0202e400061ef4
:0202e500061af7
:0202e6000616fa
:0202e7000612fd
:0202e800060e00
:0202e900060a03
:0202ea00060606
:0202eb00060209
:0202ec0005fd0e
:0202ed0005f911
:0202ee0005f514
:0202ef0005f117
:0202f00005ed1a
:0202f10005e91d
:0202f20005e421
:0202f30005e024
:0202f40005dc27
:0202f50005d72b
:0202f60005d32e
:0202f70005cf31
:0202f80005cb34
:0202f90005c638
:0202fa0005c23b
:0202fb0005bd3f
:0202fc0005b942
:0202fd0005b545
:0202fe0005b049
:0202ff0005ac4c
:0203000005a74f
:0203010005a352
:02030200059f55
:02030300059a59
:0203040005965c
:02030500059160
:02030600058d63
:02030700058867
:0203080005836b
:02030900057f6e
:02030a00057a72
:02030b00057675
:02030c00057179
:02030d00056d7c
:02030e00056880
:02030f00056384
:02031000055f87
:02031100055a8b
:0203120005558f
:02031300055192
:02031400054c96
:0203150005479a
:0203160005439d
:02031700053ea1
:020318000539a5
:020319000534a9
:02031a000530ac
:02031b00052bb0
:02031c000526b4
:02031d000521b8
:02031e00051cbc
:02031f000517c0
:020320000513c3
:02032100050ec7
:020322000509cb
:020323000504cf
:0203240004ffd4
:0203250004fad8
:0203260004f5dc
:0203270004f0e0
:0203280004ebe4
:0203290004e6e8
:02032a0004e1ec
:02032b0004dcf0
:02032c0004d7f4
:02032d0004d2f8
:02032e0004cdfc
:02032f0004c800
:0203300004c304
:0203310004be08
:0203320004b90c
:0203330004b410
:0203340004af14
:0203350004aa18
:0203360004a51c
:0203370004a020
:02033800049b24
:02033900049628
:02033a0004902d
:02033b00048b31
:02033c00048635
:02033d00048139
:02033e00047c3d
:02033f00047642
:02034000047146
:02034100046c4a
:0203420004674e
:02034300046252
:02034400045c57
:0203450004575b
:0203460004525f
:02034700044c64
:02034800044768
:0203490004426c
:02034a00043d70
:02034b00043775
:02034c00043279
:02034d00042c7e
:02034e00042782
:02034f00042286
:02035000041c8b
:0203510004178f
:02035200041293
:02035300040c98
:0203540004079c
:020355000401a1
:0203560003fca6
:0203570003f6ab
:0203580003f1af
:0203590003ebb4
:02035a0003e6b8
:02035b0003e1bc
:02035c0003dbc1
:02035d0003d6c5
:02035e0003d0ca
:02035f0003cacf
:0203600003c5d3
:0203610003bfd8
:0203620003badc
:0203630003b4e1
:0203640003afe5
:0203650003a9ea
:0203660003a4ee
:02036700039ef3
:020368000398f8
:020369000393fc
:02036a00038d01
:02036b00038706
:02036c0003820a
:02036d00037c0f
:02036e00037713
:02036f00037118
:02037000036b1d
:02037100036621
:02037200036026
:02037300035a2b
:02037400035430
:02037500034f34
:02037600034939
:0203770003433e
:02037800033e42
:02037900033847
:02037a0003324c
:02037b00032c51
:02037c00032755
:02037d0003215a
:02037e00031b5f
:02037f00031564
:02038000030f69
:02038100030a6d
:02038200030472
:0203830002fe78
:0203840002f87d
:0203850002f282
:0203860002ec87
:0203870002e78b
:0203880002e190
:0203890002db95
:02038a0002d59a
:02038b0002cf9f
:02038c0002c9a4
:02038d0002c3a9
:02038e0002bdae
:02038f0002b8b2
:0203900002b2b7
:0203910002acbc
:0203920002a6c1
:0203930002a0c6
:02039400029acb
:020395000294d0
:02039600028ed5
:020397000288da
:020398000282df
:02039900027ce4
:02039a000276e9
:02039b000270ee
:02039c00026af3
:02039d000264f8
:02039e00025efd
:02039f00025802
:0203a000025207
:0203a100024c0c
:0203a200024611
:0203a300024016
:0203a400023a1b
:0203a500023420
:0203a600022e25
:0203a70002282a
:0203a80002222f
:0203a900021c34
:0203aa00021639
:0203ab0002103e
:0203ac00020a43
:0203ad00020448
:0203ae0001fe4e
:0203af0001f754
:0203b00001f159
:0203b10001eb5e
:0203b20001e563
:0203b30001df68
:0203b40001d96d
:0203b50001d372
:0203b60001cd77
:0203b70001c77c
:0203b80001c181
:0203b90001ba87
:0203ba0001b48c
:0203bb0001ae91
:0203bc0001a896
:0203bd0001a29b
:0203be00019ca0
:0203bf000196a5
:0203c000018fab
:0203c1000189b0
:0203c2000183b5
:0203c300017dba
:0203c4000177bf
:0203c5000171c4
:0203c600016aca
:0203c7000164cf
:0203c800015ed4
:0203c9000158d9
:0203ca000152de
:0203cb00014be4
:0203cc000145e9
:0203cd00013fee
:0203ce000139f3
:0203cf000133f8
:0203d000012cfe
:0203d100012603
:0203d200012008
:0203d300011a0d
:0203d400011313
:0203d500010d18
:0203d60001071d
:0203d700010122
:0203d80000fb28
:0203d90000f42e
:0203da0000ee33
:0203db0000e838
:0203dc0000e23d
:0203dd0000db43
:0203de0000d548
:0203df0000cf4d
:0203e00000c952
:0203e10000c258
:0203e20000bc5d
:0203e30000b662
:0203e40000b067
:0203e50000a96d
:0203e60000a372
:0203e700009d77
:0203e80000977c
:0203e900009082
:0203ea00008a87
:0203eb0000848c
:0203ec00007e91
:0203ed00007797
:0203ee0000719c
:0203ef00006ba1
:0203f0000064a7
:0203f100005eac
:0203f2000058b1
:0203f3000052b6
:0203f400004bbc
:0203f5000045c1
:0203f600003fc6
:0203f7000039cb
:0203f8000032d1
:0203f900002cd6
:0203fa000026db
:0203fb00001fe1
:0203fc000019e6
:0203fd000013eb
:0203fe00000df0
:0203ff000006f6
:00000001FF
